:020000040800F2
:1000000000000520911B0008951A0008971A0008A7
:10001000991A00089B1A00089D1A000800000000A9
:1000200000000000000000000000000071DC00087B
:100030009F1A00080000000011DD000875DD0008AF
:10004000E11B0008E11B0008E11B0008E11B0008A0
:10005000E11B0008E11B0008E11B0008E11B000890
:10006000E11B0008E11B0008E11B0008E11B000880
:10007000E11B0008E11B0008E11B0008E11B000870
:10008000E11B0008E11B0008E11B0008E11B000860
:10009000E11B0008E11B0008E11B0008E11B000850
:1000A000E11B0008E11B0008E11B0008E11B000840
:1000B000E11B0008E11B0008E11B0008E11B000830
:1000C000E11B0008E11B0008E11B0008E11B000820
:1000D000E11B0008E11B0008E11B0008E11B000810
:1000E000E11B0008E11B0008E11B0008E11B000800
:1000F000E11B0008E11B0008E11B0008E11B0008F0
:10010000E11B0008E11B0008E11B0008E11B0008DF
:10011000E11B0008E11B0008A11A0008E11B000810
:10012000E11B0008E11B0008E11B0008E11B0008BF
:10013000E11B0008E11B0008E11B0008E11B0008AF
:10014000E11B0008E11B0008E11B0008E11B00089F
:10015000E11B0008E11B0008E11B0008E11B00088F
:10016000E11B0008E11B0008E11B0008E11B00087F
:10017000E11B0008E11B0008E11B00080000000073
:10018000E11B0008E11B0008E11B0008E11B00085F
:10019000E11B0008E11B0008E11B0008E11B00084F
:1001A000B11A0008E11B0008C11A0008E11B000891
:1001B000E11B0008E11B0008E11B0008E11B00082F
:0801C000E11B0008E11B00082F
:1001D00010B5054C237833B9044B13B10448AFF381
:1001E00000800123237010BD2003002000000000C8
:1001F00018A5030808B5034B1BB103490348AFF327
:10020000008008BD000000002403002018A503089A
:1002100001F0FF01102A2BDB10F0070F08D010F8B7
:10022000013B013A8B422DD010F0070F42B3F6D1BB
:10023000F0B441EA012141EA014122F007047FF0D4
:1002400000070023F0E80256083C85EA010586EA2B
:10025000010685FA47F5A3FA87F586FA47F6A5FA67
:1002600087F68EB9EED1F0BC01F0FF0102F0070273
:1002700032B110F8013B013A83EA010313B1F8D11E
:100280000020704701387047002D06BF35460338FF
:10029000073815F0010F07D1013015F4807F02BF38
:1002A000013015F4C03F0130F0BC0138704700BF89
:1002B00081F0004102E000BF83F0004330B54FEA17
:1002C00041044FEA430594EA050F08BF90EA020F84
:1002D0001FBF54EA000C55EA020C7FEA645C7FEA17
:1002E000655C00F0E2804FEA5454D4EB5555B8BF3A
:1002F0006D420CDD2C4480EA020281EA030382EAAB
:10030000000083EA010180EA020281EA0303362D3C
:1003100088BF30BD11F0004F4FEA01314FF4801C0F
:100320004CEA113102D0404261EB410113F0004F21
:100330004FEA03334CEA133302D0524263EB4303D8
:1003400094EA050F00F0A780A4F10104D5F1200E76
:100350000DDB02FA0EFC22FA05F2801841F10001D1
:1003600003FA0EF2801843FA05F359410EE0A5F1A5
:1003700020050EF1200E012A03FA0EFC28BF4CF0D6
:10038000020C43FA05F3C01851EBE37101F000458C
:1003900007D54FF0000EDCF1000C7EEB00006EEB99
:1003A0000101B1F5801F1BD3B1F5001F0CD3490823
:1003B0005FEA30004FEA3C0C04F101044FEA44527A
:1003C00012F5800F80F09A80BCF1004F08BF5FEA01
:1003D000500C50F1000041EB045141EA050130BDE1
:1003E0005FEA4C0C404141EB0101013C28BFB1F5F3
:1003F000801FE9D291F0000F04BF01460020B1FA3E
:1004000081F308BF2033A3F10B03B3F120020CDA10
:100410000C3208DD02F1140CC2F10C0201FA0CF0EE
:1004200021FA02F10CE002F11402D8BFC2F1200C53
:1004300001FA02F120FA0CFCDCBF41EA0C01904009
:10044000E41AA2BF01EB0451294330BD6FEA040452
:100450001F3C1CDA0C340EDC04F11404C4F120023D
:1004600020FA04F001FA02F340EA030021FA04F34F
:1004700045EA030130BDC4F10C04C4F1200220FAA6
:1004800002F001FA04F340EA0300294630BD21FAE4
:1004900004F0294630BD94F0000F83F4801306BFAA
:1004A00081F480110134013D4EE77FEA645C18BF9E
:1004B0007FEA655C29D094EA050F08BF90EA020F35
:1004C00005D054EA000C04BF1946104630BD91EA2D
:1004D000030F1EBF0021002030BD5FEA545C05D130
:1004E0004000494128BF41F0004130BD14F580046F
:1004F0003CBF01F5801130BD01F0004545F0FE41E3
:1005000041F470014FF0000030BD7FEA645C1ABF17
:10051000194610467FEA655C1CBF0B46024650EA4E
:10052000013406BF52EA033591EA030F41F400217A
:1005300030BD00BF90F0000F04BF0021704730B500
:100540004FF4806404F132044FF000054FF00001D5
:1005500050E700BF90F0000F04BF0021704730B596
:100560004FF4806404F1320410F0004548BF40426B
:100570004FF000013EE700BF42004FEAE2014FEAC0
:1005800031014FEA02701FBF12F07F4393F07F4F9B
:1005900081F06051704732F07F4208BF704793F09E
:1005A0007F4F04BF41F40021704730B54FF46074B1
:1005B00001F0004521F000411CE700BF50EA0102B4
:1005C00008BF704730B54FF000050AE050EA01025D
:1005D00008BF704730B511F0004502D5404261EBCD
:1005E00041014FF4806404F132045FEA915C3FF40E
:1005F000D8AE4FF003025FEADC0C18BF03325FEAAB
:10060000DC0C18BF033202EBDC02C2F1200300FA5B
:1006100003FC20FA02F001FA03FE40EA0E0021FA80
:1006200002F11444BDE600BF70B54FF0FF0C4CF46E
:10063000E06C1CEA11541DBF1CEA135594EA0C0F20
:1006400095EA0C0F00F0DEF82C4481EA030621EA5B
:100650004C5123EA4C5350EA013518BF52EA033596
:1006600041F4801143F4801338D0A0FB02CE4FF048
:100670000005E1FB02E506F00042E0FB03E54FF078
:100680000006E1FB03569CF0000F18BF4EF0010E70
:10069000A4F1FF04B6F5007F64F5407404D25FEA6C
:1006A0004E0E6D4146EB060642EAC62141EA55511F
:1006B0004FEAC52040EA5E504FEACE2EB4F1FD0C61
:1006C00088BFBCF5E06F1ED8BEF1004F08BF5FEADF
:1006D000500E50F1000041EB045170BD06F0004691
:1006E00046EA010140EA020081EA0301B4EB5C043E
:1006F000C2BFD4EB0C0541EA045170BD41F4801136
:100700004FF0000E013C00F3AB8014F1360FDEBF5A
:10071000002001F0004170BDC4F10004203C35DA36
:100720000C341BDC04F11404C4F1200500FA05F3B9
:1007300020FA04F001FA05F240EA020001F000425A
:1007400021F0004110EBD37021FA04F642EB0601D0
:100750005EEA430E08BF20EAD37070BDC4F10C04FA
:10076000C4F1200500FA04F320FA05F001FA04F2BE
:1007700040EA020001F0004110EBD37041F10001AA
:100780005EEA430E08BF20EAD37070BDC4F12005B5
:1007900000FA05F24EEA020E20FA04F301FA05F21D
:1007A00043EA020321FA04F001F0004121FA04F2C5
:1007B00020EA020000EBD3705EEA430E08BF20EA95
:1007C000D37070BD94F0000F0FD101F000464000CF
:1007D00041EB010111F4801F08BF013CF7D041EA51
:1007E000060195F0000F18BF704703F00046520055
:1007F00043EB030313F4801F08BF013DF7D043EA26
:100800000603704794EA0C0F0CEA135518BF95EADB
:100810000C0F0CD050EA410618BF52EA4306D1D162
:1008200081EA030101F000414FF0000070BD50EA81
:10083000410606BF1046194652EA430619D094EA0B
:100840000C0F02D150EA013613D195EA0C0F05D1F5
:1008500052EA03361CBF104619460AD181EA030149
:1008600001F0004141F0FE4141F470014FF0000001
:1008700070BD41F0FE4141F4780170BD70B54FF09C
:10088000FF0C4CF4E06C1CEA11541DBF1CEA13551C
:1008900094EA0C0F95EA0C0F00F0A7F8A4EB0504FE
:1008A00081EA030E52EA03354FEA013100F08880F5
:1008B0004FEA03334FF0805545EA131343EA1263BE
:1008C0004FEA022245EA111545EA10654FEA002673
:1008D0000EF000419D4208BF964244F1FD0404F52C
:1008E000407402D25B084FEA3202B61A65EB030588
:1008F0005B084FEA32024FF480104FF4002CB6EB45
:10090000020E75EB030E22BFB61A754640EA0C00C4
:100910005B084FEA3202B6EB020E75EB030E22BF04
:10092000B61A754640EA5C005B084FEA3202B6EB45
:10093000020E75EB030E22BFB61A754640EA9C0004
:100940005B084FEA3202B6EB020E75EB030E22BFD4
:10095000B61A754640EADC0055EA060E18D04FEA92
:10096000051545EA16754FEA06164FEAC30343EA32
:1009700052734FEAC2025FEA1C1CC0D111F4801FFF
:100980000BD141EA00014FF000004FF0004CB6E7F8
:1009900011F4801F04BF01430020B4F1FD0C88BF97
:1009A000BCF5E06F3FF6AFAEB5EB030C04BFB6EBA2
:1009B000020C5FEA500C50F1000041EB045170BD95
:1009C0000EF0004E4EEA113114EB5C04C2BFD4EBC2
:1009D0000C0541EA045170BD41F480114FF0000E46
:1009E000013C90E645EA060E8DE60CEA135594EAC2
:1009F0000C0F08BF95EA0C0F3FF43BAF94EA0C0FC5
:100A00000AD150EA01347FF434AF95EA0C0F7FF439
:100A100025AF104619462CE795EA0C0F06D152EA8D
:100A200003353FF4FDAE1046194622E750EA410671
:100A300018BF52EA43067FF4C5AE50EA41047FF482
:100A40000DAF52EA43057FF4EBAE12E74FEA4102E5
:100A5000B2F1E04324BFB3F5001CDCF1FE5C0DD91C
:100A600001F0004C4FEAC0024CEA5070B2F1004F66
:100A700040EB830008BF20F00100704711F0804F69
:100A800021D113F13872BCBF01F00040704741F42E
:100A900080114FEA5252C2F11802C2F1200C10FA32
:100AA0000CF320FA02F018BF40F001004FEAC12316
:100AB0004FEAD32303FA0CFC40EA0C0023FA02F3BA
:100AC0004FEA4303CCE77FEA625307D150EA013390
:100AD0001EBF4FF0FE4040F44000704701F0004060
:100AE00040F0FE4040F40000704700BF7BB972B98F
:100AF0000029BEBF00204FF0004106E008BF0028DB
:100B00001CBF6FF000414FF0FF3000F0B5B9ADF100
:100B1000080C6DE904CE002909DB002B1ADB00F07C
:100B20004DF8DDF804E0DDE9022304B070474042EF
:100B300061EB4101002B1BDB00F040F8DDF804E025
:100B4000DDE9022304B0404261EB4101524263EB14
:100B500043037047524263EB430300F02FF8DDF884
:100B600004E0DDE9022304B0404261EB410170473B
:100B7000524263EB430300F021F8DDF804E0DDE9C5
:100B8000022304B0524263EB4303704753B94AB99E
:100B9000002908BF00281CBF4FF0FF314FF0FF3085
:100BA00000F06AB9ADF1080C6DE904CE00F006F86A
:100BB000DDF804E0DDE9022304B070472DE9F047D9
:100BC000089D0C46002B4ED194468C458646B2FAC1
:100BD00082F262D94AB1C2F12003914020FA03F3B4
:100BE0000CFA02FC194300FA02FE4FEA1C471FFAF6
:100BF0008CF6B1FBF7F44FEA1E4307FB141143EAEE
:100C0000014304FB06F199420AD91CEB030304F1EA
:100C1000FF3080F01281994240F20F81023C634420
:100C2000591A1FFA8EF3B1FBF7F007FB101143EAD4
:100C3000014300FB06F69E420AD91CEB030300F1B8
:100C4000FF3180F0FC809E4240F2F980634402381C
:100C50009B1B40EA044000211DB1D3400022C5E99E
:100C60000032BDE8F0878B4205D90DB1C5E900011E
:100C700000210846F5E7B3FA83F1002946D1A342E3
:100C800002D39042C0F0F080861A64EB0303012087
:100C9000002DE6D0C5E90063E3E7002A40F090802C
:100CA000A1EB0C044FEA1C481FFA8CF70121B4FB9E
:100CB000F8F64FEA1E4308FB164443EA044307FBD9
:100CC00006F0984208D91CEB030306F1FF3402D268
:100CD000984200F2CD8026461C1A1FFA8EF3B4FB10
:100CE000F8F008FB104443EA044300FB07F79F4277
:100CF00008D91CEB030300F1FF3402D29F4200F23B
:100D0000B0802046DB1B40EA0640A5E7C1F1200683
:100D10008B4022FA06F71F4320FA06FC04FA01F37F
:100D200043EA0C03F44000FA01F8380C4FEA134987
:100D3000B4FBF0FE1FFA87FC00FB1E4449EA0444A2
:100D40000EFB0CF9A14502FA01F20AD93C190EF189
:100D5000FF3A80F08480A14540F28180AEF1020E1E
:100D60003C44A4EB09041FFA83F9B4FBF0F300FB45
:100D7000134449EA044403FB0CFCA44507D93C197D
:100D800003F1FF3067D2A44565D9023B3C4443EAF6
:100D90000E40A0FB0293A4EB0C049C42CE469C4662
:100DA00051D34ED055B1B8EB0E0364EB0C0404FAEA
:100DB00006F6CB401E43CC40C5E90064002150E755
:100DC000C2F1200320FA03F10CFA02FC24FA03F327
:100DD00094400C434FEA1C4800FA02FE1FFA8CF7BD
:100DE000B3FBF8F008FB1031230C43EA014300FB8E
:100DF00007F1994208D91CEB030300F1FF362CD20E
:100E000099422AD9023863445B1AA4B2B3FBF8F1C1
:100E100008FB113344EA034401FB07F3A34208D95A
:100E20001CEB040401F1FF3613D2A34211D902399D
:100E30006444E41A41EA004139E70446F0E6084612
:100E400006E7C845AED2B9EB020E63EB070C0138DA
:100E5000A8E73146EDE7034699E73046D4E7D646A2
:100E60007FE7634402384DE70646234608460FE70E
:100E7000023E634430E700BF704700BF08B5024937
:100E800000200EF0AFF908BD5D220008BFF34F8FC0
:100E9000BFF36F8F084B0022C3F85022BFF34F8F70
:100EA000BFF36F8F5A6942F400325A61BFF34F8F1C
:100EB000BFF36F8F704700BF00ED00E010B4154B1B
:100EC0000022C3F88420BFF34F8FD3F88040C4F3CF
:100ED0004E3000E01846C4F3C90243F6E07303EA5B
:100EE000401343EA82730B49C1F860321346013A5A
:100EF000002BF2D1431E0028ECD1BFF34F8F4B697A
:100F000043F480334B61BFF34F8FBFF36F8F5DF8B6
:100F1000044B704700ED00E030B585B0002400942C
:100F200001940294039409F0EDF901258DF8005025
:100F30008DF801404FF0104301931B238DF80830CA
:100F40008DF809408DF80A4003238DF80B308DF899
:100F50000C408DF80D408DF80E408DF80F4068461E
:100F600009F0EEF98DF8015017238DF808308DF84F
:100F70000E50684609F0E4F9042009F0D1F905B0F3
:100F800030BD00002DE9F04F91B000240B940C947B
:100F90000D940E940F945D4B1A6B42F010021A637D
:100FA0001A6B02F010020092009A1A6B42F00202D1
:100FB0001A631A6B02F002020192019A1A6B42F054
:100FC00001021A631A6B02F001020292029A1A6B72
:100FD00042F040021A631A6B02F040020392039A35
:100FE0001A6B42F400721A631A6B02F400720492D4
:100FF000049A1A6B42F008021A631A6B02F0080294
:101000000592059A1A6B42F480621A631A6B02F415
:1010100080620692069A1A6B42F020021A631A6BDB
:1010200002F020020792079A1A6B42F480721A6348
:101030001A6B02F480720892089A1A6B42F08002CE
:101040001A631A6B02F080020992099A1A6B42F035
:1010500004021A631B6B03F004030A930A9BDFF874
:10106000B4B022461021584609F03BFDDFF8A8A095
:1010700001220821504609F034FDDFF8A09001223A
:101080004FF48051484609F02CFDDFF89480224649
:10109000C021404609F025FD1D4F2246402138461B
:1010A00009F01FFD10230B9301250C950D940326C9
:1010B0000E960BA9584609F065FB08230B930C9577
:1010C0000D940E940BA9504609F05CFB4FF480532D
:1010D0000B930C950D940E940BA9484609F052FB06
:1010E000C0230B930C950D940E960BA9404609F066
:1010F00049FB40230B930C950D940E960BA9384693
:1011000009F040FB11B0BDE8F08F00BF003802408D
:101110000018024000040240002802400020024063
:101120000008024008B50648064B0360002303711F
:101130004371436183610123036209F02DF908BD06
:10114000140500200030024010B5094C094B236003
:1011500000236360A360E360A362E36223636363CD
:10116000204609F0DFF90121204609F0A9FA10BD57
:10117000D404002000B002402DE9F04F89B00026D1
:1011800001960296039604960596069607963B4DA1
:101190003B4B2B606E60AE604FF0040AC5F80CA0AC
:1011A0004FF01008C5F8108040236B614FF4C073F6
:1011B000AB61EE614FF400632B624FF480536B62BE
:1011C000AE624FF00209CDF8049007230293CDF8E8
:1011D0000CA004934FF0030BCDF814B0CDF8189089
:1011E000CDF81C900DEB0A0128460BF00FFD009680
:1011F000244C01272760C4F80480A760E6604FF6FE
:10120000FF72214628460BF021FD384608F0EEFF1C
:10121000C4F80090C4F80480A760E6604FF6FF723F
:10122000214628460BF012FDC4F800B0C4F8048033
:101230000823A360E6604FF6FF72214628460BF0B4
:1012400005FD4FF40C730093C4F800A0C4F80480AB
:10125000A760009BE3604FF6FF72214628460BF023
:10126000F5FC40F22B7128460BF011FD4FF02043A6
:1012700043F2D2021A6009B0BDE8F08F5803002093
:10128000400100A03C03002038B5642008F0AEFF08
:101290000C4C0D4B23600D4B63600025A5600123B2
:1012A000E36025616561A561E5612562204609F07D
:1012B000FBFD294620460AF021F8294620460AF07F
:1012C0004BF838BD80040020005C00406847402097
:1012D00030B58FB03422002101A838F03BFA244CFD
:1012E000244B236000256560A560E5602561282307
:1012F00063610923A3613523E3610B23236240F279
:101300001523636240F21B13A36240F23523E362AC
:1013100040F21D13236384F8345084F8355084F868
:10132000365020460AF01CF901954FF4F0720292F3
:1013300003954FF48873049302210591FF210691D0
:1013400007954FF480610891052109914FF04041C4
:101350000A910B920C938DF834508DF835508DF81E
:1013600036502A4601A920460AF0E3F90FB030BDF5
:10137000D80300200068014008B50E480E4B0360FA
:1013800001234360042383601023C3601823036197
:101390004FF4A063436100238361C36103620AF0D9
:1013A000AFFD08F081FD08F0C5FC5C2008F0A6FF49
:1013B00008BD00BF8C030020001000A008B5642009
:1013C0000BF0ACFFFBE7000030B595B030220021F8
:1013D00008A838F0BFF900240394049405940694F7
:1013E00007941D4B1A6C42F080521A641B6C03F078
:1013F00080530193019B194B1A6842F440421A60D2
:101400001B6803F440430293029B012308934FF4AB
:101410008033099302250E954FF480030F9319230F
:1014200010934FF4D87311931295139508A80AF0EE
:10143000BFFD0AF0D7F90F230393049505944FF4E9
:10144000A05306934FF480530793072103A80BF092
:101450001DF815B030BD00BF0038024000700040DC
:1014600008B5FFF759FDFFF711FDFFF727FD08F05D
:1014700099FEFFF7A9FFFFF785FDFFF753FEFFF782
:1014800063FEFFF779FEFFF7FFFEFFF721FFFFF78F
:1014900073FF00F07BFB00F0A5FB00F0A2FB0BF05C
:1014A0008FFE0C4A00210C480BF0CCFE0B4B186051
:1014B0000B4A00210B480BF0C5FE0B4B18600B4A82
:1014C00000210B480BF0BEFE0A4B18600BF096FE95
:1014D000FEE700BFE0A50308BD1300085403002089
:1014E000BCA50308F11B00085003002098A50308C1
:1014F000014200084C03002008B50268034B9A42E1
:1015000000D008BD08F060FEFBE700BF00100040FF
:1015100070470000F0B587B0002301930293039356
:10152000049305932A4B1B680BB107B0F0BD284B01
:1015300001221A60274B9A6B42F001029A639B6B5F
:1015400003F001030093009B4FF68373019302267F
:101550000296032504950C24059401A91E4809F060
:1015600011F948F23313019302960027039704956B
:10157000059401A9194809F005F94CF20373019388
:10158000029603970495059401A9154809F0FAF805
:101590004FF63F030193029603970495059401A922
:1015A000104809F0EFF82823019302960397049559
:1015B000059401A90C4809F0E5F808230193029667
:1015C00003970495059401A9084809F0DBF8ACE7F6
:1015D0003805002000380240001002400018024088
:1015E000000C024000140240001C024000080240AF
:1015F00000B583B00D4B1A6C42F080521A641A6C1D
:1016000002F080520092009A5A6C42F480425A646E
:101610005B6C03F480430193019B00220F216FF068
:10162000010008F04DFE03B05DF804FB00380240F5
:101630000268094B9A4200D0704782B003F50063FC
:101640001A6B42F480521A631B6B03F480530193AC
:10165000019B02B0704700BF0030024002680E4B91
:101660009A4200D0704700B583B0A3F5F0431A6BDF
:1016700042F400021A631B6B03F400030193019B05
:10168000002205215A2008F01BFE5A2008F028FEEF
:1016900003B05DF804FB00BF00B0024010B5A8B075
:1016A000044600212391249125912691279184229B
:1016B00002A838F04FF82268184B9A4201D028B09F
:1016C00010BD4FF48033029302A80AF0C9FF10BB8B
:1016D000134C236B43F080032363236B03F08003DD
:1016E0000093009B4FF4C073239312232493012390
:1016F0002593032326930423279323A9094809F05C
:1017000041F8236C43F400032364236C03F40003C7
:101710000193019BD3E7FFF7FBFED9E7005C004094
:1017200000380240001C024002680A4B9A4200D076
:10173000704710B5084A136C23F400031364074C78
:101740008021204609F020F94FF48071204609F0ED
:101750001BF910BD005C004000380240001C024034
:1017600070B5ACB0044600212791289129912A91A7
:101770002B91842206A837F0EDFF2268494B9A424C
:1017800001D02CB070BD082306934FF4C0730B93A7
:1017900005230D9302230C93012310934FF4003380
:1017A000119306A80AF05CFF002878D13E4B5A6CD2
:1017B00042F080625A645A6C02F080620092009A91
:1017C0001A6B42F010021A631A6B02F010020192B7
:1017D000019A1A6B42F400721A631A6B02F40072D7
:1017E0000292029A1A6B42F480621A631A6B02F434
:1017F00080620392039A1A6B42F040021A631A6BDA
:1018000002F040020492049A1A6B42F480721A6346
:101810001B6B03F480730593059B1023279302250C
:101820002895002429942A940E262B9627A91F4830
:1018300008F0A8FF4EF6FF732793289529942A9461
:101840002B9627A91A4808F09DFFF7232793289580
:1018500029942A942B9627A9164808F093FF4FF451
:1018600080532793289529942A9409232B9327A9F9
:10187000114808F087FF4FF4464327932895299491
:101880002A942B9627A90D4808F07CFF22460521B3
:10189000582008F015FD582008F022FD71E7FFF7E9
:1018A00037FE83E700680140003802400010024024
:1018B000002402400028024000180240002002409C
:1018C0002DE9F0438BB0002305930693079308930B
:1018D000099302682E4B9A4202D00BB0BDE8F08308
:1018E0002C4B9A6B42F002029A639A6B02F002024E
:1018F0000192019A1A6B42F010021A631A6B02F0FD
:1019000010020292029A1A6B42F002021A631A6BD8
:1019100002F002020392039A1A6B42F008021A6361
:101920001B6B03F008030493049B4FF00409CDF8EC
:10193000149002250695032408940926099605A902
:10194000154808F01FFF40230593069500270797C9
:1019500008940A230993DFF8488005A9404608F057
:1019600011FFCDF81490069507970894099605A9DC
:10197000404608F007FF4FF460530593069507971C
:101980000894099605A9054808F0FCFEA5E700BFE4
:10199000001000A00038024000100240000C02407D
:1019A0000004024008B502680B4B9A4200D008BD03
:1019B0000A4A936B23F0020393630421084808F05A
:1019C000E3FF4421074808F0DFFF4FF46051064869
:1019D00008F0DAFFEBE700BF001000A0003802407B
:1019E0000010024000040240000C024008B5FFF75E
:1019F00091FD08BD30B589B00446214B1A6C42F008
:101A000010021A641B6C03F010030193019B02A9DE
:101A100003A80AF007FE069BCBB90AF0F3FD0346C4
:101A2000184AA2FB03239B0C013B1748174A02608C
:101A300040F2E732C2604360002303618360836148
:101A40000BF0DAFA054630B1284609B030BD0AF08D
:101A5000D9FD4300E4E70C480BF034F905460028B3
:101A6000F2D1362008F03CFC0F2C01D90125EBE720
:101A700000222146362008F023FC054B1C60E3E7DA
:101A80000038024083DE1B433C050020001000406C
:101A90003C0000207047FEE7FEE7FEE7FEE77047E8
:101AA00008B502480BF05AF908BD00BF3C050020FC
:101AB00008B5024809F0D0FD08BD00BFD8030020DA
:101AC00008B5024808F05EFD08BD00BFD404002040
:101AD0000120704708B537F0F1FE162303604FF080
:101AE000FF3008BD08B54FF0FF31FFF7F3FFFEE709
:101AF00070B50C461646002506E0AFF3008021467F
:101B000001F8010B01350C46B542F6DB304670BDDD
:101B100070B50C461646002504E014F8010BAFF32F
:101B200000800135B542F8DB304670BD4FF0FF3024
:101B300070474FF400534B600020704701207047FE
:101B40000020704710B503460C4A0D490D48006847
:101B500040B10C4800680344521A934206D8094A1F
:101B6000136010BD0748084C0460F2E737F0A6FE8A
:101B70000C2303604FF0FF30F3E700BF00000520A7
:101B8000000A000088050020309A012070470000FC
:101B9000DFF834D0002103E00C4B5B584350043194
:101BA0000B480C4B42189A42F6D30B4A02E0002332
:101BB00042F8043B094B9A42F9D308F0AFF937F0E9
:101BC00083FEFFF74DFC704700000520303004080D
:101BD0000000002020010020200300202C9A01207A
:101BE000FEE7704708B501F0E5FD01F0B5FD08BD61
:101BF00008B501F0E1FD08BD10B5044641B1036828
:101C00001B699847A368C01A63680344636010BDEA
:101C100003681B699847A060F9E740687047416016
:101C2000704700004FF0E022D2F8FC3D43F0807393
:101C3000C2F8FC3D054BD3F8B01F054A0A43C3F870
:101C4000B02F1A6842F001021A607047001000E0DD
:101C500055CEACC5521A02EB5302B2FBF3F07047FB
:101C6000014B5868704700BF001000E010B50446F3
:101C700041B103681B699847A368C01A63680344AD
:101C8000636010BD03681B699847A060F9E7000016
:101C9000024A0260024A0260704700BF34A603088D
:101CA0000CA6030810B50446044B0360044B036004
:101CB0000C2136F05AFB204610BD00BF34A60308A5
:101CC0000CA6030808B5034B034A1360DB687020B9
:101CD000984708BD100000208C0500200F4B1B68A2
:101CE000D3B130B583B00D4614461B6970209847B8
:101CF00010B9002003B030BD084B1B685B6901AA16
:101D00000DF1060170209847BDF804302B60BDF836
:101D1000063023600120EDE7002070478C0500208D
:101D2000024A0260024A0260704700BF74A60308BC
:101D30005CA6030808B509F01BF908BD70B584B0AE
:101D400004460D464FF47A760296BDF8246001965B
:101D5000089E009609F025F9064610B9304604B0F1
:101D600070BD29462046FFF7E5FFF7E770B584B060
:101D700004460D464FF47A760296BDF8246001962B
:101D8000089E009609F0E2F9064610B9304604B004
:101D900070BD29462046FFF7CDFFF7E710B5044692
:101DA000044B0360044B0360042136F0DEFA204646
:101DB00010BD00BF74A603085CA6030800B585B07B
:101DC0008DF80F20012301930DF10F0200920A46B6
:101DD00001460348FFF7B2FF05B05DF804FB00BF02
:101DE0008004002000B585B00A4600238DF80F302E
:101DF000012301930DF10F01009101460348FFF704
:101E0000B5FF9DF80F0005B05DF804FB80040020CD
:101E100008B503280DD8DFE800F0020D1823164B93
:101E200053F82020B2FA82F252091021134808F028
:101E300058FE08BD104B53F82020B2FA82F2520926
:101E400040210F4808F04DFEF3E70B4B53F82020DC
:101E5000B2FA82F252098021094808F042FEE8E70E
:101E6000054B53F82020B2FA82F25209402105486E
:101E700008F037FEDDE700BF9005002000040240B7
:101E8000000802400018024008B503280DD8DFE81A
:101E900000F0020D1824174B53F8203003B1012035
:101EA00002461021144808F01CFE08BD114B53F8DF
:101EB000203003B9002002464021104808F011FEEE
:101EC000F3E70C4B53F820302BB1012280210B4853
:101ED00008F007FEE9E70022F8E7064B53F8203048
:101EE0002BB101224021064808F0FBFDDDE700226E
:101EF000F8E700BF900500200004024000080240FF
:101F00000018024008B5032807D8DFE800F00207F0
:101F10000C111021094808F0EAFD08BD40210848CD
:101F200008F0E5FDF9E78021054808F0E0FDF4E759
:101F30004021044808F0DBFDEFE700BF0004024049
:101F4000000802400018024008B503281BD8DFE84B
:101F500000F0020B101510210C4808F0BBFD012801
:101F600014BF0020012008BD4021094808F0B2FD3F
:101F7000F5E78021064808F0ADFDF0E7402105486F
:101F800008F0A8FDEBE70020E9E700BF00040240ED
:101F9000000802400018024010B5002400E001349F
:101FA000042C0EDCE0B2FFF7CFFF0028F7D0054B82
:101FB00053F82430012BF2D0024B012243F82420A5
:101FC000EDE710BD9005002080F87810012380F81F
:101FD0007930704708B590F87A3023B140680368CB
:101FE0001B68984708BD0020FCE7002070470000F0
:101FF0004164003918BF0121014B1970704700BFBF
:10200000838E01200020704708B5836B0BB1084612
:10201000984708BD4FF6FF70704708B540680368E1
:102020009B69984708BD000090F8782090F83430FC
:102030009A420CD00C4B1B78ABB90C4A11880C4B54
:10204000188810801980084B01221A707047064BBF
:102050001B7843B1054A1188054B188810801980F8
:10206000014B00221A7070477C8E01207A8E01206D
:10207000788E012010B4124B0022C3F88420BFF3E5
:102080004F8FD3F88040C4F34E3000E01846C4F3BD
:10209000C90243F6E07303EA401343EA8273084936
:1020A000C1F874321346013A002BF2D1431E0028C6
:1020B000ECD1BFF34F8FBFF36F8F5DF8044B7047C8
:1020C00000ED00E0034A0260034A0260034A026036
:1020D000704700BF04A80308A0C10308C01E04087D
:1020E00038B5044601F00EFE2368D3F88C3007495A
:1020F00020469847002384F84A30054D2846FFF7CC
:1021000091FD2561012384F8703038BD000000C0C6
:10211000A005002008B501F06BFC08BD08B501F072
:102120006DFC08BD08B501F01BFEFFF7A3FF08BD5D
:1021300008B501F019FE08BD08B501F017FC08BD8F
:1021400008B501F01DFC08BD08B501F023FC08BD71
:1021500008B501F033FC08BD10B561B1C16302647C
:10216000003A18BF012207490A700268D2F88C2091
:102170001946904710BD044B044A40F2D22104484E
:1021800037F03AF8828E012084A60308BCA6030823
:102190000CA7030808B5094B1B888B4208D8084BCD
:1021A0001B88934204D8074B1980074B1A8008BD3F
:1021B000064B074A9E21074837F01EF8788E01200B
:1021C0007A8E01207E8E0120808E012054A7030884
:1021D000B8A703080CA7030810B504461DF0BEFEFF
:1021E0002368D3F8AC302046984710BD08B51DF0E1
:1021F00007F908BD10B50446054B0360054B0360A5
:10220000054B03607C2136F0B0F8204610BD00BFBE
:1022100004A80308A0C10308C01E0408012800D0B8
:10222000704708B54FF6FF73994200D008BD0648C5
:10223000064B0360002343608360054B0360054A3F
:10224000054936F08DF8F1E7A00500200CA603083B
:1022500034A6030800000020911C000808B530B126
:102260000121064B18681DF093FE012008BD0021D6
:10227000024B18681DF08CFEF7E700BF848E01202A
:1022800008B54FF6FF710120FFF7C8FF08BD000039
:1022900008B50022012108460BF02EF90B4B1860FF
:1022A00040B10022042101200BF014FA084B186001
:1022B00030B108BD074B084A2821084836F09CFF7A
:1022C000074B054A2C21054836F096FFB005002043
:1022D000AC050020D4A8030820A9030850A90308CE
:1022E00090A9030808B54FF0FF31024B18680BF0B6
:1022F0006DF908BDB005002008B5024B18680BF059
:10230000A9F908BDB005002008B50021024B1868E6
:102310000BF05CF908BD00BFB005002008B5024B0A
:1023200018680BF097F908BDB005002008B5002328
:102330001A460349034800680BF026FA08BD00BF9F
:1023400004000020AC05002010B582B0074C00232B
:102350001A4601A920680BF063FA4FF0FF33002200
:1023600001A920680BF05CFA02B010BDAC0500209A
:1023700008B503685B6C984708BD0120704708B535
:1023800003689B6A984708BD08B5034B1B685868EB
:1023900003685B69984708BD848E0120FEE7000052
:1023A000084A0260084A4FF08061C2F88810BFF303
:1023B0004F8FBFF36F8F054AC260054AC260054A5E
:1023C0000260704750AB030800E100E0E81F04081A
:1023D0002CAB0308981F040882B00E4B1A6B42F412
:1023E00000021A631A6B02F400020192019A1A6940
:1023F00042F400021A611A6922F400021A61064BC3
:10240000064A1A61064A5A61064B4FF080629A608A
:1024100002B0704700380240D4040020892300082D
:102420009D23000800E100E040F2EF30704710B556
:102430000446FFF7B5FF4FF45A61204635F095FF8B
:10244000204610BD38B505460C4B40F80C3B686083
:1024500000232B726B722C46094B44F8203B602200
:1024600021461DF0EFFE5F2303E00022E260013B06
:102470002434002BF9DA284638BD00BF981F040821
:1024800050AB030808B50B290BD8DFE801F00612A2
:10249000100A0A0A0A0808080808022008BD0520D0
:1024A000FCE7054B054A6F21054836F0A5FE0020E4
:1024B000F4E70120F2E700BFD4A90308F0A903085C
:1024C0003CAA030808B50A2909D8DFE801F006107C
:1024D0000E080808081010101000022008E0054B34
:1024E000054A9021054836F087FE002000E00120D3
:1024F00008BD00BFD4A903087CAA03083CAA0308AE
:102500002DE9F04105460C46497FFFF7BBFF064623
:1025100094F81E8041462846FFF7B4FF074641461F
:102520002846FFF7CFFF628BA38AD21A5C4B1A644E
:10253000628BA18A521A9A61228BA18A521A1A615D
:102540005863E28AA18A42EA01425A642269DA6344
:102550006268DA602368802B37D013D8202B7DD0B7
:10256000402B7BD0042B40F08680237F46EA036318
:1025700043F400334A4AD361576223695361494B9C
:10258000136020E0B3F5807F10D0B3F5007F72D1E7
:10259000237F454A42EA0362414BDA61E2681A62EC
:1025A0005F6222695A613F4A1A600CE0237F3F4A0A
:1025B00042EA03623A4BDA61E2681A625F622269B8
:1025C0005A61384A1A60BDE8F081A1680B1D344A8F
:1025D000D362237F46EA036343F40033D361576237
:1025E000236953610B788BB1012B2CD1237FFF2BF7
:1025F00027D001202A4CE2692D4B13404A88013A2A
:1026000043EA022343F01003E36109E02448C2696E
:10261000274B13404A88013A43EA0223C361012051
:102620001F4AD36943F02003D3611D4BDB6913F0CC
:10263000200FFAD11A4B10229A6058B1194A1A6029
:10264000C1E70020D6E71B4B1B4A4FF48D711B4896
:1026500036F0D2FD124B1A4A1A60B4E7237F46EADD
:10266000036343F400330E4AD36157622369536115
:102670000C4B1360A7E7237F46EA036646F4003657
:10268000074BDE61627FA37F9A4203D0044B0C4A62
:102690001A6098E7024B42F201321A6093E700BFDA
:1026A00000B0024001230200090002000A000200FB
:1026B000EF00FFFFC8AA0308E4AA03083CAA030826
:1026C0000123010010B50C46897FFFF7FBFE1D4B6F
:1026D0005863E28AA18A42EA01425A642269DA63B3
:1026E000628BA18A521A1A642368082B12D01549EA
:1026F000C86100230B61E268130A03F478435009B0
:1027000000F4FC600343C2F3C40213438B630E4B1B
:102710000B6010BD628BA38AD21A0A4B9A61628B3E
:10272000A18A521A1A615862217F084A42EA01625C
:10273000DA61E2681A6222695A612269DA60044A3F
:102740001A60E6E700B0024001230300090001001F
:1027500001230200044B1B6813F0010FFAD1024B56
:1027600023229A60704700BF00B00240094B5B69AA
:1027700013F4803F0DD0BFF34F8F04E0054BC3F837
:102780006802203020390029F8DCBFF34F8FBFF3F7
:102790006F8F704700ED00E030B4134C246814F0E4
:1027A000010FFAD1104C2325A560022565630904A9
:1027B00041F001016164E063FF2B0CD021466562AA
:1027C0000A4C44EA0363CB610A624861C860084B63
:1027D0000B6030BC7047044B0222DA61029A9A63A4
:1027E000044A1A60F5E700BF00B00240090001008A
:1027F000010002000100030030B4124C246814F000
:10280000010FFAD10F4C2325A56002256563120440
:1028100042F001026264E063E160FF2B09D01B0615
:1028200043F00213E36165626061074B236030BCD3
:1028300070471B0643F00213024AD3610123136061
:10284000F5E700BF00B002400100020030B40D4CBB
:10285000246814F0010FFAD10A4C2325A560022543
:102860006563120442F001026264E063E1601B06EA
:1028700043F40033E36165626061034B236030BC65
:10288000704700BF00B0024001000200406970477D
:1028900090F844007047036B0BB101207047C36A86
:1028A0000BB10120704700207047806870478C464C
:1028B00004300FC88CE80F0070470000024A026025
:1028C000024A0260704700BF34AF0308F4AE030849
:1028D00008B5034B034A40F21221034836F08CFC42
:1028E00098AB03089CAB0308F8AB030810B504468B
:1028F000044B0360044B0360482135F036FD20464D
:1029000010BD00BF34AF0308F4AE03080B4A0260E9
:102910000B4A0260002242618261C261026242622D
:102920008262C262026341638263C263026480F8AE
:1029300044200261C260426082607047F4AE0308C6
:1029400034AF030810B58C4611461A46036B43B1E9
:10295000846B036CACEB030C04EB0C0036F002FF51
:1029600010BDC06A6044F9E7036B73B1036CC91A08
:10297000836B585C0B445A7840EA02209A7840EA0C
:102980000240DB7840EA03607047C26A5318505C2B
:102990005A7840EA02209A7840EA0240DB7840EA1E
:1029A00003607047036B43B1036CC91A836B585CB7
:1029B0000B445B7840EA03207047C36A5A18585C9E
:1029C000537840EA0320704770B504460D46006B0B
:1029D000E0B11646E36B93420FD30368DB68984778
:1029E000206B03681B693246A16B984710B90D2311
:1029F00084F844302564A06B70BD092384F844300A
:102A0000044B054A6521054836F0F6FBE06A0844A8
:102A1000F2E700BF44AC030858AC0308F8AB030866
:102A2000F8B54369002B3AD0044608228169FFF7C4
:102A3000CBFFA16904312046FFF796FFA169084446
:102A400000F10803A26A93422FD2A36100F10901A9
:102A500021F00101A161636901336361082220460D
:102A6000FFF7B2FFA76939462046FFF79BFF0546EF
:102A7000B91C2046FFF796FF0646391D2046FFF792
:102A800073FF43F2300246F26433954208BF9E4220
:102A90000CBF01250025D1D10028CFD00AE0064B7C
:102AA000064AAA21064836F0A7FB01236361236A80
:102AB000A36100252846F8BD9CAC0308E8AC0308D8
:102AC000F8AB03082DE9F047ADF51E7D06468A46B2
:102AD00014461F4608228169FFF776FFD6F8188052
:102AE00008F104013046FFF73FFF0546024608F1B2
:102AF00008013046FFF768FF736B03B3804600227E
:102B000001920292019303A814F074F824904FF4F8
:102B1000F472502124A80DF03DF92A46414624A81C
:102B20000EF03AF9012124A80DF0CDF902238DF819
:102B3000D83024A80DF07AFABAF902800BE02D4BB8
:102B40002D4A40F2AB112D4836F056FB012201A967
:102B500024A80DF0BBFA479B4345F7D3BAF9009080
:102B6000BAF8043013FA89F31BB22B9DAB4200D2A2
:102B70001D4607FB08F804EB4804BAF80230BAF81F
:102B8000062013441BB2DDF8048143451BD298464E
:102B900019E003EB430C00EB0C0292F802E0184939
:102BA00001EA0E2109B25278D20002F4FC6211430C
:102BB00010F80C2041EAD20124F813100133AB4283
:102BC000E7D304EB4704479B434507D2012201A901
:102BD00024A80DF07BFA706B4B46F0E724A80DF0AB
:102BE00097F924A80DF030F901200DF51E7DBDE800
:102BF000F08700BF1CAD030874AD0308F8AB0308F1
:102C000000F8FFFF70B504460D4601B901252368A1
:102C1000DB6A20469847A84204D22368DB6A204634
:102C200098470546E6696B1E06EB0316102206F16F
:102C300008012046FFF7C8FE06F110012046FFF705
:102C400093FE236A18440438A061656170BD0000DA
:102C50002DE9F04104460021816180F844104822AA
:102C6000FFF7B2FEA56904236A4A29462046FFF70A
:102C700069FE002859D105F10801A1610423664AC3
:102C80002046FFF75FFE002858D105F10C06A6612B
:102C90000423624A31462046FFF754FE002856D1ED
:102CA00005F110012046FFF75FFE0746002858D0C7
:102CB00004235B4A05F114012046FFF743FE002878
:102CC00056D0062384F844304FF000080423554AB8
:102CD00005F118012046FFF735FE00284BD00723E9
:102CE00084F84430F51908350C2229462046FFF7B0
:102CF0006BFE04234C4A05F108012046FFF722FE33
:102D0000002858D094F84430002B54D1A36AAB4229
:102D100051D9291D2046FFF727FE083005440C2213
:102D200029462046FFF750FEE3E7032384F84430AA
:102D30003E4B3F4AF2213F4836F05EFA042384F8C6
:102D400044303D4B3A4AFA213A4836F055FA0523C9
:102D500084F84430394B364A40F20111354836F098
:102D60004BFA374B324A40F20711324836F044FAF8
:102D70004FF00108AAE7B8F1000FB3D005F1200128
:102D80002046FFF7F1FD2F4BA3FB00239B09636057
:102D900005F130012046FFF7E7FDA06005F1400195
:102DA0002046FFF7E1FDE06005F144012046FFF712
:102DB000DBFD206196E794F8443023B10A2384F8C0
:102DC0004430BDE8F08105F10C03A3612E1D3146AE
:102DD0002046FFF7C9FD4319083363623146204698
:102DE000FFF7C2FD08300544042229462046FFF7BC
:102DF000EBFD0423144A29462046FFF7A3FD28B91A
:102E0000E56101236361A3692362DAE70B2384F898
:102E10004430D6E7D0AD030824AE030844AE03081F
:102E200070AE030878AE030880AE0308D8AD03087F
:102E3000F4AD0308F8AB03082CAE03084CAE03084E
:102E400064AE0308D34D621088AE030808B5C162B2
:102E5000826200220263FFF7FBFE08BD10B5044644
:102E6000084621630023E3620B689B689847A062D1
:102E70002046FFF7EDFE10BD2DE9F041ADF51E7DBA
:102E8000A69F002A5AD006460D461C469046002BA7
:102E900054D0436B002B51D0002201920292019337
:102EA00003A813F0A7FE24904FF4F472502124A835
:102EB0000CF070FF4246294624A80DF06DFF012159
:102EC00024A80DF000F802238DF8D83024A80DF0C6
:102ED000ADF82B9BBDF890529D4228BF1D46419BEB
:102EE000BDF89482984528BF984614E08B78154A1F
:102EF00002EA032212B24B78DB0003F4FC631A43AC
:102F000011F8033B42EAD30224F8022B8142EDD3AD
:102F1000A7EB45031C44479B434509D2012201A965
:102F200024A80DF0D3F8716B05EB45000844EDE7DC
:102F300024A80CF0EDFF24A80CF086FF0DF51E7DF3
:102F4000BDE8F08100F8FFFF2DE9F04F85B09A460B
:102F50004369A3B304468846914608228169FFF776
:102F600033FDA66931462046FFF71CFD8346B11CA0
:102F70002046FFF717FD0746311D2046FFF7F4FCFA
:102F8000054633180833A26A93423AD243F230021C
:102F900046F26433934508BF9F4200D1A8B9A369A4
:102FA0002B44A3610DB90833A361A369013323F056
:102FB0000103A361626A93421ED0002025E0154BF5
:102FC000154A7721154836F017F906F10801A16175
:102FD00002462046FFF7F8FC01460E9B0293CDF80F
:102FE00004A0CDF8009043462A462046FFF744FF50
:102FF000636901336361D2E701206061236AA361E1
:1030000003E001206061236AA36180F0010005B044
:10301000BDE8F08F9CAC030890AE0308F8AB030842
:10302000014B0360704700BF88AF030870477047CB
:103030007047704770477047014B0360704700BF8F
:1030400098AF03087047704700F59873086849689F
:1030500003C37047034A0260034A0260034A0260E6
:10306000704700BFECAF03088826040898AF030838
:10307000074A0260074AC0F84421074AC0F84421C1
:10308000064A0260064A0260064A0260704700BFB4
:1030900058B0030840B00308D4AF0308ECAF0308EE
:1030A0008826040898AF0308084A0260084A0260AC
:1030B000084AC0F84421084AC0F84421074A02607F
:1030C000074A0260074A0260704700BFACB00308BD
:1030D00058B0030840B00308D4AF0308ECAF0308AE
:1030E0008826040898AF0308024A0260024A026078
:1030F000704700BF00B1030888AF0308024A0260AE
:10310000024A0260704700BFCC2A04083026040837
:10311000024A0260024A0260704700BF4427040866
:10312000C0AF0308024A0260024A0260704700BF53
:1031300030C4030874AF0308024A0260024A026006
:10314000704700BF40B00308D4AF030801207047A8
:103150000C20704701EB4101890008310844704799
:1031600001EB410189000831084470470120704794
:1031700043F6A030704743F6A03303FB01F108315A
:103180000844704743F6A03303FB01F108310844BB
:10319000704701207047102070470901083108442A
:1031A0007047090108310844704708B50346416873
:1031B000C26801EB620012F0010F02D19B689847D0
:1031C00008BD4FEA620C51F80C209B68D358F6E713
:1031D00043684BB183680BB101207047C36813F09B
:1031E000010F03D001207047002070470020704776
:1031F00010B50446034B0360042135F0B6F82046B1
:1032000010BD00BF98AF030810B50446044B03601F
:10321000044B0360142135F0A8F8204610BD00BF10
:1032200000B1030888AF030810B50446034B0360E0
:10323000142135F09AF8204610BD00BF88AF03086E
:1032400010B50446044B0360044B0360102135F0B5
:103250008CF8204610BD00BF40B00308D4AF03086F
:1032600010B50446054B0360054B0360054B036036
:103270004FF4A27135F079F8204610BDECAF030889
:103280008826040898AF030810B50446094B03606C
:10329000094BC0F84431094BC0F84431084B036076
:1032A000084B0360084B03604FF4AE7135F05DF8D6
:1032B000204610BD58B0030840B00308D4AF03083F
:1032C000ECAF03088826040898AF030810B504463D
:1032D0000A4B03600A4B03600A4BC0F844310A4BA7
:1032E000C0F84431094B0360094B0360094B03608C
:1032F0004FF4AE7135F039F8204610BDACB003087C
:1033000058B0030840B00308D4AF0308ECAF03087B
:103310008826040898AF030808B5084601F05CFA4F
:1033200008BD08B501F058FA08BD10B50446D0F83C
:10333000580105F07FFD204622F0B4FB10BD0000CF
:1033400010B50446024B03601AF059FF204610BD29
:103350007CB1030810B50446044B03601AF04FFF1C
:103360001421204635F001F8204610BD7CB1030839
:1033700010B50446024B03601AF041FF204610BD11
:1033800048B1030810B50446054B03601AF037FF37
:1033900043F6A831204634F0E8FF204610BD00BFB8
:1033A00048B1030810B50446024B03601AF027FF2A
:1033B000204610BD14B1030810B50446044B036049
:1033C0001AF01DFF1821204634F0CFFF204610BD13
:1033D00014B1030810B50446194B036000F54053BF
:1033E000184AC3F8002C184AC3F8002C174AC3F82F
:1033F000442D174AC3F8442D164AC3F8002C164A28
:10340000C3F8002C154AC3F8002C154AC3F8D42B76
:1034100043F6D43020441AF0F2FE2046114B40F817
:103420002C3F1AF0ECFE20460F4B40F8143F1AF0E8
:10343000E6FE0E4B23600E4B2360204610BD00BFFE
:10344000B0B10308ACB0030858B0030840B003089B
:10345000D4AF0308ECAF03088826040898AF03082C
:103460007CB1030848B1030814B1030800B1030894
:1034700088AF030810B50446FFF7ACFF43F65C5174
:10348000204634F072FF204610BD000030B5BDF874
:103490000CC0BDF810E0324D056041608260C36031
:1034A00000230361436183618383C3830384438473
:1034B0008384C384038580F82A30C362038680F83E
:1034C00034308363C3630364436480F8483001226B
:1034D00080F8492080F84A3080F84B30C364A0F867
:1034E0005030A0F85230A0F85430A0F8563080F890
:1034F0005830C3650366436680F8682080F86930F9
:1035000080F86A3080F86B2080F86C3080F86D307D
:1035100080F86E3080F86F3080F87030436780F844
:10352000783080F8793080F87A2080F87B200D4A56
:1035300010600D4AA2F800C00C4AA2F800C00C4A64
:10354000A2F800E00B4AA2F800E00B4A1370F44521
:103550002CBF4FF0000C4FF0010C80F834C030BD90
:10356000C01E0408848E0120788E01207E8E0120EA
:103570007A8E0120808E01207C8E0120012800D0CF
:1035800070474FF6FF739942FAD12DE9F04182B0AE
:10359000224E234B3360234B3360234C2246234976
:1035A000304634F0DDFE224F3846FEF74BFF224610
:1035B0002049384634F0D4FEDFF8A08040462AF097
:1035C00099FF22461C49404634F0CAFE1B4D28464E
:1035D00023F03CFB22461A49284634F0C1FE22461D
:1035E0001849194834F0BCFE184D4FF48873019304
:1035F0004FF4F07300933346424639462846FFF7AE
:1036000045FF134B2B60134B2B6022461249284673
:1036100034F0A6FE02B0BDE8F08100BF7C140020AB
:103620005CA6030874A6030800000020211D000802
:10363000DC060020A1230008FD300008340600202D
:10364000113100082531000808000020B4050020D1
:10365000A0C1030804A80308C520000850060020E4
:1036600010B50446D0F8400158B10368DB689847AC
:1036700038B1D4F8400103689B6898470023C4F828
:10368000403110BD08B5FFF7EBFF08BDF8B50446A3
:10369000143004F12C0743F6D435254404F5705654
:1036A000144B23606060A760E5602661124B2360C5
:1036B000124B23601AF0A4FD114B636138461AF0D7
:1036C0009FFD104BE36228461AF09AFD04F5405323
:1036D0000D4AC3F8D42B43F6E835281905F0C1FB91
:1036E00022462919304605F09BFB304601F074F85C
:1036F0002046F8BD88AF030800B10308B0B1030845
:1037000014B1030848B103087CB103080E4B1B68D1
:10371000BFF35B8F13F0010F01D00C48704710B559
:10372000094834F024FE08B9084810BD074C20466B
:10373000FFF7ACFF064A0749204634F011FE024865
:1037400034F021FEF0E700BF801400208414002034
:1037500000000020D533000830B583B000F06AFFC8
:10376000054600F06BFF01460024009423462246E4
:10377000284625F0B7FD094B094A1A60204604F097
:103780008BFA084B084A9A60084825F013FDFFF7AA
:10379000BDFF0748FEF7A4FC03B030BDE88E012052
:1037A00030060020500600203406002008000020CB
:1037B000B40500207047000008B502481BF089FEE0
:1037C00008BD00BFB405002010B50446044B0360DB
:1037D000044B03608C2134F0C8FD204610BD00BFAF
:1037E000CC2A04083026040810B50446044B0360B4
:1037F000044B03601C2134F0B8FD204610BD00BF0F
:1038000044270408C0AF030810B50446044B036006
:10381000044B0360042134F0A8FD204610BD00BF16
:1038200030C4030874AF030808B54FF6FF710120D8
:10383000FFF7A4FE08BD08B590F8253013B1036862
:103840005B69984708BD0020704781807047C18040
:1038500070470181704741817047704770477047DA
:103860007047704708B5B0F804C0A1EB0C01B0F880
:1038700006C0A2EB0C0203685B6D12B209B2984756
:1038800008BD4FF6FF738381038443841368C361CB
:103890001060704790F825201AB190F8242002B1EA
:1038A0001860704700207047B1F904308380012010
:1038B0007047704780F82610704790F826007047D0
:1038C000B1F908C0B1F90A10002202804280A0F8C4
:1038D00004C0C18070470022028042808280C28082
:1038E00070470000014B0360704700BF98C2030897
:1038F000416070470177704780ED080A704780F893
:103900002410704780F825107047012070479830C8
:1039100070478C30704784307047000010B4124BF1
:103920000022C3F88420BFF34F8FD3F88040C4F344
:103930004E3000E01846C4F3C90243F6E07303EAD0
:10394000401343EA82730849C1F874321346013ABE
:10395000002BF2D1431E0028ECD1BFF34F8FBFF3F1
:103960006F8F5DF8044B704700ED00E0034B902231
:1039700083F85A2383F85823704700BF00E100E022
:10398000034B4FF080629A604FF080729A607047EC
:1039900000E100E0084B4FF08062C3F88820BFF3DD
:1039A0004F8FBFF36F8F4FF08072C3F88820BFF343
:1039B0004F8FBFF36F8F704700E100E0094AD36873
:1039C000C3F30A03013B9BB207490B801169C1F3A2
:1039D0000A010139054801801364536B43F0010368
:1039E0005363704700680140E2510020E05100201D
:1039F000014BD3F8AC00704700680140024BC3F89C
:103A0000AC1001225A6270470068014008B5044BAF
:103A10005B6913F4803F00D108BDFFF77FFFFBE730
:103A200000ED00E008B5044B5B6913F4803F00D162
:103A300008BDFFF773FFFBE700ED00E0024A0260FC
:103A4000024A0260704700BFF0C30308B0C3030816
:103A5000124A0260124AC0F89820124AC0F8982010
:103A60001149C0F89810114AC0F884202432C0F8D7
:103A70008C200F4AC0F88C200E4AC0F88420C0F871
:103A800084100D4A02600D4A82650D4A82650D4A16
:103A900082650D4A82650D4A0260704764C303085F
:103AA0000C200408CCC2030878C203082C200408A8
:103AB00098C20308ACC2030878200408ECC20308CB
:103AC000F4210408F8C00308DC26040860C10308D8
:103AD000044A0260044A0260044A0260044A026026
:103AE000704700BFECC20308F4210408F8C00308C3
:103AF000DC260408024A0260024A0260704700BFE6
:103B0000A0C10308C01E04080131C1EBC101C900F6
:103B10000022425413461BB10AB9036C83647047F8
:103B20000133C3EBC30110F831100A43F3E77047C8
:103B300080F84C107047000010B50446034B03603A
:103B4000082134F012FC204610BD00BF98C20308C3
:103B500010B50446044B0360044B03607C2134F031
:103B600004FC204610BD00BFA0C10308C01E04080D
:103B700010B50446044B0360044B0360582134F035
:103B8000F4FB204610BD00BFF0C30308B0C3030818
:103B900010B50446064B0360064B0360064B0360FA
:103BA000064B03602C2134F0E0FB204610BD00BF23
:103BB000ECC20308F4210408F8C00308DC2604085A
:103BC00010B50446144B0360144BC0F89830144BE6
:103BD000C0F89830134AC0F89820134BC0F88430CE
:103BE0002433C0F88C30114BC0F88C30104BC0F827
:103BF0008430C0F884200F4B03600F4B83650F4B5C
:103C000083650F4B83650F4B83650F4B0360BC21AE
:103C100034F0ABFB204610BD64C303080C2004083D
:103C2000CCC2030878C203082C20040898C20308F9
:103C3000ACC2030878200408ECC20308F42104088D
:103C4000F8C00308DC26040860C1030808B539B9C8
:103C50000B460133C3EBC30300EBC300407808BD40
:103C6000034B044A40F29711034835F0C5FA00BFF0
:103C7000BCB10308D0B1030860B3030808B539B973
:103C800000EB8100406803681B6B1146984708BD34
:103C9000034B044A40F29111034835F0ADFA00BFDE
:103CA000BCB10308A4B3030860B3030808B529B97D
:103CB000C1EBC10300EBC300006908BD024B034A1E
:103CC0007A21034835F098FABCB1030858B50308C7
:103CD00060B3030810B549B9C1EBC10100EBC101E4
:103CE00000244C618C60CA618B6110BD024B034A99
:103CF0008321034835F080FABCB1030810B70308EC
:103D000060B3030838B504461BF0CFFB23685D6E33
:103D100021F02CFE01462046A847094A2368D3F823
:103D200088500023A2F57F312046A847054B064A5C
:103D30005A60064A1A649A644FF4FF225A6438BDE6
:103D400000F807C0A4520020FC52002000F40BC071
:103D500008B51BF091FB08BD08B51BF099FB08BD29
:103D600008B51BF053FB08BD08B51BF0C0FC08BD2F
:103D700008B51BF045FB08BD38B541B905460C46F2
:103D8000052A58D8DFE802F0094F5861707B414B93
:103D9000414AA421414835F02FFA00EB84035868CA
:103DA00003681B699847002845D04FF0FF31686DC4
:103DB00009F02EFB631CC3EBC30205EBC202012119
:103DC0005170C3EBC30205EBC2020021D170C4EBFA
:103DD000C40205EBC20291605161C3EBC30305EB62
:103DE000C3039B7913B1134601221A62631CC3EB10
:103DF000C30305EBC30300229A71C4EBC40305EBB4
:103E0000C3035A62DB6A1BB1686D09F03FFB12E025
:103E10000134C4EBC40405EBC40301229A70286D7D
:103E200009F018FCF0E70134C4EBC40300EBC30352
:103E300000225A709A7138BDC4EBC40200EBC20272
:103E40001362002393605361F5E7C4EBC40200EBF7
:103E5000C20213620023936053610134C4EBC404B3
:103E600000EBC404A371E6E70134C4EBC40300EB28
:103E7000C30300225A701C460123A371DBE7003BF9
:103E800018BF01230134C4EBC40400EBC4056B71FB
:103E9000D1E700BFBCB10308D0B8030860B3030882
:103EA00038B50546134B036000238380124B036033
:103EB000124B1B6893F858200AB1D86C00B9986867
:103EC0000368DB6A9847B0FA80F464090B4B1B68FF
:103ED000D86C30B10368DB6A9847002808BF44F00B
:103EE00001040CB1284638BD054B064A2C21064872
:103EF00035F082F978C20308ACC20308848E012031
:103F0000A8BA030808BB030844BB030838B5044635
:103F10000D46FFF7C5FF054BA3600023E360E56096
:103F2000034B23602433A360204638BD98C20308A6
:103F30002C20040810B504460D4B03600D4B0360A4
:103F400000238380C380038143818381C3810382F3
:103F50004382C384038543858385343023F0D5F8B9
:103F600004F158001EF026FA034BA365204610BD4D
:103F700060C1030878200408ECC2030838B5044681
:103F8000FFF7D8FF2046154B40F8843B0025294613
:103F9000FFF7BCFF124BC4F89830A4F89C50114BAB
:103FA000C4F89830A4F89E506423A4F8A030C4F854
:103FB000A45084F8A85084F8A95084F8AA5000238B
:103FC000C4F8AC30C4F8B030C4F8B430C4F8B83079
:103FD000054BC4F89830204638BD00BF64C30308C1
:103FE00078C20308CCC203080C2004080E4B1B68DF
:103FF000BFF35B8F13F0010F01D00C48704710B571
:10400000094834F0B4F908B9084810BD074C2046F7
:10401000FFF7B4FF064A0749204634F0A1F90248E9
:1040200034F0B1F9F0E700BFE4510020E85100207E
:1040300000000020513A0008144B1B682BB310B548
:10404000134B1B6C134A11888B420AD007F0A6FB56
:104050000E4B186803681B6A98470020FDF714FF91
:1040600010BD0D4B198807F099FB084C226892F897
:104070006A30013382F86A30FEF758F920681BF085
:104080006DFF0020FDF7C4FEEAE77047848E012033
:1040900000680140E2510020E05100202DE9F0438A
:1040A00083B0054658E0631CC3EBC30305EBC303B1
:1040B0009B78002B55D101344FE04FF0FF31686DF4
:1040C00009F0A6F9C4EBC40305EBC3039A6AD3F85D
:1040D000308042454FD005EB84035E68C4EBC403D7
:1040E00005EBC303196A00294CD033685B6A30467C
:1040F0009847C4EBC40305EBC30300221A62631C98
:10410000C3EBC30305EBC303DA70686D09F0BEF9B6
:1041100033684FF4707200925F694FF488734FF404
:10412000F07241463046B84707464FF0FF31686DA0
:1041300009F06EF9631CC3EBC30305EBC303DB7823
:10414000002B3BD00134C4EBC40405EBC4040023B2
:10415000E370686D09F09AF90024002CA3D04FF6A3
:10416000FF744FF6FF739C42A7D14FF0FF31286DCB
:1041700009F02CFAF0E7C4EBC40305EBC303D3F852
:104180003480A8E7C4EBC40305EBC3035B6A002BD0
:10419000BBD03368D3F824909B6A30469847C4EB71
:1041A000C40705EBC707796A01443046C847BB68B6
:1041B0007A6A1344BB6000237B62A6E7C4EBC403A6
:1041C00005EBC303C3F82C809FB133689B6A30466C
:1041D00098470138C4EBC40305EBC303D86001342E
:1041E000C4EBC40305EBC3031F711C460023A3707B
:1041F000AFE7C4EBC40305EBC3030122DA60EEE7CB
:1042000008B50148FFF74AFFA452002000220260CF
:1042100042608260C260026142618261C261026288
:1042200042628262C26280F8302080F8312080F8D9
:10423000322080F8332080F83420012180F83510B6
:1042400080F836207047000070B50446114B0360BB
:104250000546114B45F8083B0026002E14DA0025D0
:1042600025646564A564012084F84C0025656565B6
:1042700065602A46294609F03FF92065284609F07D
:104280006BF86065204670BD2846FFF7BFFF013E12
:104290003835E2E7B0C30308F0C30308012800D0B3
:1042A000704738B54FF6FF73994200D038BD0A4CBD
:1042B0000A492046FEF72AFB094D2A4609492046AD
:1042C00034F04EF8084C2046FFF7BEFF2A46074957
:1042D000204634F045F8E9E7FC5200204453002022
:1042E00000000020BD280008A45200203D3A00082C
:1042F00070B58EB00546002434B1184B184A40F210
:10430000F511184834F078FF631CC3EBC30315F8AC
:1043100033300BB10134EFE76846FFF777FFC4EBAA
:10432000C403DB000833EE461D440CAEF446BCE883
:104330000F0028606960AA60EB60E6461035B4455E
:10434000F4D1DCF800002860BCF804209CF80630AA
:10435000AA80AB7120460EB070BD00BFA8BB030899
:10436000D8BB030860B3030838B504460D46FFF711
:10437000BFFF431CC3EBC303012204F83320002218
:1043800085F834204FF4F073EB864FF488732B8755
:104390002A63C0EBC00304EBC3031A61A36C03F5EB
:1043A000FF21226C656C2A4491420AD8C0EBC002FE
:1043B00004EBC202136303F57F33A3645363A16468
:1043C00038BD034B034A5821034834F015FF00BFA2
:1043D00064BD0308A4BD030860B3030810B4CB6830
:1043E0000A6902FB03F34C690A6804FB02F2934278
:1043F00003D200205DF8044B704790F84C0038B1B0
:104400009B1AB3FBF4F2CA619C4201D8013ACA611B
:104410000120EFE7F8B5002969D1054617460C469B
:10442000C1EBC101C90008310144631CC3EBC303E4
:1044300000EBC3035B7853B1444B1B6893F86B00EC
:10444000C4EBC40305EBC3035A6902445A61C4EBCD
:10445000C40305EBC303DB6A002B53D02846FFF7E8
:10446000BDFF30B9C4EBC40305EBC3031B6A002BCB
:104470005ED04FF0FF31686D08F0CAFFC4EBC40393
:1044800005EBC3031B6A2BB1C4EBC40305EBC303E9
:104490000022DA62C4EBC40305EBC303DA6A62B339
:1044A000C4EBC40305EBC3039A620021D962D96847
:1044B0001961996801319960631CC3EBC30305EB73
:1044C000C3031E793A633B685B6938469847AEB9C7
:1044D000631CC3EBC30305EBC3035B7973B9631CB4
:1044E000C3EBC30305EBC30300225A7006E0184B6D
:1044F000184AE721184834F07FFE0126686D08F05D
:10450000C5FF00E00126631CC3EBC30305EBC30337
:104510005B782BB9C4EBC40305EBC3031B6A2BB157
:10452000C4EBC40305EBC303DB6A1BB13046F8BD23
:104530000126E8E70134C4EBC40405EBC4040123FD
:10454000A370286D09F086F8F0E700BF848E012083
:10455000BCB103084CBF030860B3030870B505463F
:104560000C4603685E6A00230422B0474FF0FF3117
:10457000686D08F04DFFC4EBC40305EBC303DB6AB1
:104580002BB1C4EBC40305EBC3030022DA62013490
:10459000C4EBC40305EBC3030122DA701C460023FD
:1045A0006370686D08F072FF70BD38B504460D4643
:1045B00000EB810358680368DB6811469847294679
:1045C0002046FFF7CBFF38BD70B504460D461146B7
:1045D00000EB85025068026896681A46B047294683
:1045E0002046FFF7BBFF70BD08B54FF6FF710120F5
:1045F000FFF754FE08BD08B5042918D8DFE801F01C
:1046000003070B0F130003F0B5FB006808BD03F0B0
:10461000B1FB4068FAE703F0ADFB8068F6E703F012
:10462000A9FBC068F2E703F0A5FB0069EEE70020F4
:10463000ECE70000004870473CC4030805207047C1
:1046400069B110B582B0002301938DF8033003687F
:104650009C680DF1030301AAA04702B010BD002021
:104660007047C0897047008A7047C088704780884B
:104670007047807A00F07F007047807AC0097047E9
:10468000002070479FED010A704700BF0000000046
:10469000014B0360704700BFA8C4030810B504466F
:1046A000034B0360082133F060FE204610BD00BFBD
:1046B000A8C40308014B0360704700BFACC70308E0
:1046C000704770477047416070470123037270471D
:1046D000024A0260024A0260704700BFD0C7030866
:1046E000ACC7030810B50446044B0360044B0360D9
:1046F0000C2133F03AFE204610BD00BFD0C703089E
:10470000ACC7030810B50446034B03600C2133F01B
:104710002CFE204610BD00BFACC7030808B521F031
:1047200025F90368DB6B984708BD0000F8B504461F
:104730000E46174621F02AFA214B23600025C4F8C3
:104740003C51C4F840511F4B1C601F4B23601F4B52
:10475000C4F844311E4BC4F84431C4F84851C4F87D
:104760004C51C4F85051C4F85471C4F85861194EF2
:10477000306803689B6829469847284603F08CFAFE
:10478000336893F858200AB1D86C00B998682BF0B8
:1047900004FD104B1B6893F858200AB1D86C00B97F
:1047A00098682BF075FD0B4B1B6893F858200AB1E5
:1047B000D86C00B998682BF077FD2046F8BD00BF93
:1047C000ECAF0308D88E012058B00308D4AF03081B
:1047D00040B00308848E012010B489B00346104A0B
:1047E000069200220792EC4608AA12E903008CE820
:1047F00003000C4C02940C4A0292039304AA82E830
:104800000300C3F8483103F5A67C8CE8030002944A
:1048100003F5A272C3F8402109B05DF8044B70475C
:1048200081490008D4AF030840B003082DE9F84FD0
:104830000746884615469946DDF828A09068036823
:104840001B6A984743F69F33984277D96868036894
:104850001B6A98470F2877D9E86803681B6A98474E
:104860000B2877D921F082F8043021F0BDF8D9F86F
:10487000000010B10368DB689847D9F8000010B158
:1048800003681B689847386810B103685B699847EC
:10489000D8F8000010B103685B689847386810B119
:1048A00003681B689847D8F8000010B103689B683C
:1048B0009847E86803685B6A002198470446294BDB
:1048C00003604FF0000BC0F804B080F808B0264B2E
:1048D0000360A86803685B6A59469847064604F077
:1048E0009DFD686803685B6A5946984705463146EE
:1048F00004F042FCC9F80040C8F800503E60002DAA
:104900002ED02B1DCAF80030C5F808A0F563336817
:10491000DB68304698472B681B6828469847214635
:10492000304623F023F923681B6920469847236803
:104930005B69204698472846BDE8F88F0B4B0C4A28
:10494000A3210C4834F058FC0B4B094AA421094818
:1049500034F052FC094B064AA521064834F04CFCC1
:104960002B46CFE7ACC70308D0C70308B0C4030881
:1049700040C5030814C603085CC6030800C7030843
:1049800000B583B0D0F858310093054BD0F85421CE
:1049900000F59E710348FFF749FF03B05DF804FB83
:1049A000CC8E0120C88E0120406A7047806A704713
:1049B000034A0260034A0260034A0260704700BF74
:1049C000F4C7030858270408E0E90308C2698B8884
:1049D000DB0A52F823000B68184470479446E2B192
:1049E000137BE3B1026A9CF80D00000200F4E06062
:1049F0009CF80BC040EA0C0002EB80025BB110880F
:104A0000884205D088420CD8013B9BB20432F5E7BE
:104A100092F9020070470020704700207047002084
:104A2000704700207047000010B50446054B036036
:104A3000054B0360054B03602C2133F096FC2046A8
:104A400010BD00BFF4C7030858270408E0E90308B5
:104A500030B58BB00446BDF860500895BDF85C5089
:104A600007959DF8505006959DF84C5005959DF87A
:104A7000485004959DF8445003959DF84050029588
:104A80009DF83C500195BDF83850009522F0FAFB96
:104A9000064B2360159BE361169B2362199B63629F
:104AA0001A9BA36220460BB030BD00BFF4C70308B9
:104AB0007047704770477047704730B585B00446FF
:104AC00001816D460368D3F8843001462846984733
:104AD0003C3495E8070084E8070005B030BD30B5E8
:104AE00085B0044641816D460368D3F884300146A1
:104AF000284698473C3495E8070084E8070005B04D
:104B000030BD0022028042808280C280704780F8DF
:104B10003610704738B50446154603681B6B984736
:104B200023685B6E29462046984738BD00207047B1
:104B300008B590F8253013B103685B69984708BD44
:104B40000022028042804FF6FF718180C180826026
:104B50007047806C70477047704770477047704768
:104B6000704770477047704770477047704770478D
:104B7000704770477047704770477047044A02603B
:104B8000044A0260044A4260044A4260704700BF1F
:104B9000ACD70308FC270408241E0408DC260408FC
:104BA00038B504460D4600F579738B4219D004F5EB
:104BB0008853AB4219D041F6B8432344AB4219D0D5
:104BC00004F54F73AB421AD004F53D73AB421BD0D2
:104BD00004F52B73AB421CD004F51973AB421DD006
:104BE00038BD0368DB6D9847E1E723681B6E2046FC
:104BF0009847E0E723685B6E20469847E0E7236824
:104C00009B6E20469847DFE72368DB6E2046984777
:104C1000DEE723681B6F20469847DDE723685B6F5C
:104C200020469847DCE7F8B504460D4617461E4671
:104C300000F2EC438B4232D004F5D963AB423AD058
:104C400004F6A403AB4242D004F52863AB424AD039
:104C500004F65C43AB4252D004F63863AB425AD000
:104C600041F208232344AB4261D041F2E4332344B0
:104C7000AB4268D004F5AE53AB4270D041F29C73A6
:104C80002344AB4277D041F678132344AB427ED025
:104C900041F654332344AB4200F08580F8BD0B68E5
:104CA0009B6811462846984701462368DB6A3246CE
:104CB00020469847C0E72B689B68394628469847A6
:104CC000014623681B6B324620469847B8E72B689D
:104CD0009B68394628469847014623685B6B3246F5
:104CE00020469847B0E72B689B6839462846984786
:104CF000014623689B6B324620469847A8E72B68FD
:104D00009B6839462846984701462368DB6B324644
:104D100020469847A0E72B689B6839462846984765
:104D2000014623681B6C32462046984798E72B685B
:104D30009B68394628469847014623685B6C324693
:104D40002046984791E72B689B6839462846984744
:104D5000014623689B6C3246204698478AE72B68B9
:104D60009B6839462846984701462368DB6C3246E3
:104D70002046984782E72B689B6839462846984723
:104D8000014623681B6D3246204698477BE72B6817
:104D90009B68394628469847014623685B6D324632
:104DA0002046984774E72B689B6839462846984701
:104DB000014623689B6D3246204698476EE70220E5
:104DC000704702207047022070470220704702207F
:104DD000704702207047022070470220704702206F
:104DE0007047022070470220704702207047000081
:104DF000024A0260024A0260704700BF30D90308CD
:104E0000ECD60308024A0260024A0260704700BF03
:104E100018D9030800D9030870B505460646084BA3
:104E200046F8043B00F58E7404E054F88C3D1B6892
:104E300020469847A642F8D1024B2B60284670BD09
:104E4000E8D8030804D7030870B505460646084BA2
:104E500046F8043B00F58E7404E054F88C3D1B6862
:104E600020469847A642F8D1024B2B60284670BDD9
:104E7000D0D8030804D7030870B505460646084B8A
:104E800046F8043B00F58E7404E054F88C3D1B6832
:104E900020469847A642F8D1024B2B60284670BDA9
:104EA000B8D8030804D7030870B505460646084B72
:104EB00046F8043B00F58E7404E054F88C3D1B6802
:104EC00020469847A642F8D1024B2B60284670BD79
:104ED000A0D8030804D7030870B505460646084B5A
:104EE00046F8043B00F58E7404E054F88C3D1B68D2
:104EF00020469847A642F8D1024B2B60284670BD49
:104F000088D8030804D7030870B505460646084B41
:104F100046F8043B00F58E7404E054F88C3D1B68A1
:104F200020469847A642F8D1024B2B60284670BD18
:104F300070D8030804D7030870B505460646084B29
:104F400046F8043B00F58E7404E054F88C3D1B6871
:104F500020469847A642F8D1024B2B60284670BDE8
:104F600058D8030804D7030870B505460646084B11
:104F700046F8043B00F58E7404E054F88C3D1B6841
:104F800020469847A642F8D1024B2B60284670BDB8
:104F900040D8030804D7030870B505460646084BF9
:104FA00046F8043B00F58E7404E054F88C3D1B6811
:104FB00020469847A642F8D1024B2B60284670BD88
:104FC00028D8030804D7030870B505460646084BE1
:104FD00046F8043B00F58E7404E054F88C3D1B68E1
:104FE00020469847A642F8D1024B2B60284670BD58
:104FF00010D8030804D7030870B505460646084BC9
:1050000046F8043B00F58E7404E054F88C3D1B68B0
:1050100020469847A642F8D1024B2B60284670BD27
:10502000F8D7030804D7030870B505460646084BB1
:1050300046F8043B00F58E7404E054F88C3D1B6880
:1050400020469847A642F8D1024B2B60284670BDF7
:10505000E0D7030804D70308064A0260064A026044
:10506000064A0260064A8262064A0260064A0260F6
:10507000704700BF1CD7030848240408DC2204083A
:10508000A8C40308F8C00308DC26040810B50346CA
:105090004468C26804EB620012F0010F02D19B6801
:1050A000984710BD4FEA620C54F80C209B68D35807
:1050B000F6E743684BB183680BB101207047C368C2
:1050C00013F0010F03D0012070470020704700202B
:1050D000704738B584464568C46805EB640014F031
:1050E000010F03D1DCF80840A04738BD4FEA640E39
:1050F00055F80E50DCF808402C59F5E743684BB1E1
:1051000083680BB101207047C36813F0010F03D00F
:1051100001207047002070470020704710B50446FA
:10512000FFF782FF4FF48E71204633F01EF92046C0
:1051300010BD10B50446FFF75FFF4FF48E71204697
:1051400033F013F9204610BD10B50446FFF73CFFBD
:105150004FF48E71204633F008F9204610BD10B58B
:105160000446FFF719FF4FF48E71204633F0FDF827
:10517000204610BD10B50446FFF7F6FE4FF48E71C1
:10518000204633F0F2F8204610BD10B50446FFF774
:10519000D3FE4FF48E71204633F0E7F8204610BD61
:1051A00010B50446FFF7B0FE4FF48E71204633F081
:1051B000DCF8204610BD10B50446FFF78DFE4FF415
:1051C0008E71204633F0D1F8204610BD10B504464C
:1051D000FFF76AFE4FF48E71204633F0C6F8204682
:1051E00010BD10B50446FFF747FE4FF48E71204600
:1051F00033F0BBF8204610BD10B50446FFF724FE7F
:105200004FF48E71204633F0B0F8204610BD10B533
:105210000446FFF701FE4FF48E71204633F0A5F8E7
:10522000204610BD10B50446084B0360084B0360D0
:10523000084B0360084B8362084B0360084B036014
:105240004C2133F092F8204610BD00BF1CD7030854
:1052500048240408DC220408A8C40308F8C0030892
:10526000DC26040810B50446064B0360064B0360B9
:10527000064B4360064B4360402133F076F82046EE
:1052800010BD00BFACD70308FC270408241E040887
:10529000DC26040810B50446044B0360044B03608D
:1052A000102133F062F8204610BD00BF18D9030862
:1052B00000D9030810B50446044B0360044B036097
:1052C000102133F052F8204610BD00BF30D903083A
:1052D000ECD6030808B58BB2012B04D88C2303FB52
:1052E0000100043008BD034B034A5421034833F046
:1052F00083FF00BF54C8030870C803080CC9030823
:1053000008B58BB2012B04D88C2303FB01000430B9
:1053100008BD034B034A5421034833F06DFF00BF1F
:1053200054C803086CC903080CC9030808B58BB23C
:10533000012B04D88C2303FB0100043008BD034B70
:10534000034A5421034833F057FF00BF54C80308F1
:1053500008CA03080CC9030808B58BB2012B04D88E
:105360008C2303FB0100043008BD034B034A542186
:10537000034833F041FF00BF54C80308A4CA030820
:105380000CC9030808B58BB2012B04D88C2303FB8E
:105390000100043008BD034B034A5421034833F095
:1053A0002BFF00BF54C8030840CB03080CC90308F7
:1053B00008B58BB2012B04D88C2303FB0100043009
:1053C00008BD034B034A5421034833F015FF00BFC7
:1053D00054C80308DCCB03080CC9030808B58BB21A
:1053E000012B04D88C2303FB0100043008BD034BC0
:1053F000034A5421034833F0FFFE00BF54C803089A
:1054000078CC03080CC9030808B58BB2012B04D86B
:105410008C2303FB0100043008BD034B034A5421D5
:10542000034833F0E9FE00BF54C8030814CD030855
:105430000CC9030808B58BB2012B04D88C2303FBDD
:105440000100043008BD034B034A5421034833F0E4
:10545000D3FE00BF54C80308B0CD03080CC903082D
:1054600008B58BB2012B04D88C2303FB0100043058
:1054700008BD034B034A5421034833F0BDFE00BF6F
:1054800054C803084CCE03080CC9030808B58BB2F6
:10549000012B04D88C2303FB0100043008BD034B0F
:1054A000034A5421034833F0A7FE00BF54C8030841
:1054B000E8CE03080CC9030808B58BB2012B04D849
:1054C0008C2303FB0100043008BD034B034A542125
:1054D000034833F091FE00BF54C8030884CF03088B
:1054E0000CC9030870B503685D6B124B1B68A3B150
:1054F00004468EB2828D104909888A4213D213F86D
:1055000012200E4B1B6853F8220003681B6B984750
:10551000311A09B22046A84770BD094B094A6C21CF
:10552000094833F069FE094B064A6D21064833F0FD
:1055300063FE00BFDC8E0120E08E0120E48E01209E
:1055400020D0030864D00308A0D00308E8D00308E3
:1055500038B5044600F58B6018F0FEFF0025012DDC
:1055600016DC012D0ED804F2EC408C2305FB03F36E
:1055700018442344D3F8F034D3F8883004309847E3
:105580000135ECE7B34BB44A6121B44833F034FE43
:1055900004F2346018F0E0FF0025012D16DC012D27
:1055A0000ED804F5D9608C2305FB03F3184423447B
:1055B000D3F8CC36D3F88830043098470135ECE77F
:1055C000A44BA74A6121A54833F016FE04F50160FB
:1055D00018F0C2FF0025012D16DC012D0ED804F6AF
:1055E000A4008C2305FB03F318442344D3F8A83804
:1055F000D3F88830043098470135ECE7954B994A49
:105600006121964833F0F8FD04F6EC1018F0A4FF81
:1056100000250DE004F528608C2305FB03F31844F6
:105620002344D3F8843AD3F88830043098470135BE
:10563000012D07DC012DEDD9864B8B4A612187486E
:1056400033F0DAFD04F6C83018F086FF0025012D8E
:1056500016DC012D0ED804F65C408C2305FB03F309
:1056600018442344D3F8603CD3F88830043098477A
:105670000135ECE7774B7D4A6121784833F0BCFD7A
:1056800004F6A45018F068FF0025012D16DC012D4A
:105690000ED804F638608C2305FB03F3184423442A
:1056A000D3F83C3ED3F88830043098470135ECE716
:1056B000684B6F4A6121694833F09EFD41F27410D6
:1056C000204418F049FF0025012D19DC012D11D8C7
:1056D00041F2082020448C2305FB03F3184404F511
:1056E00080521344D3F80C32D3F8883004309847F2
:1056F0000135E9E7574B5F4A6121584833F07CFD9B
:1057000041F25030204418F027FF0025012D19DC0C
:10571000012D11D841F2E43020448C2305FB03F322
:10572000184404F580521344D3F8E833D3F8883092
:10573000043098470135E9E7464B4F4A6121474815
:1057400033F05AFD41F22C50204418F005FF00259B
:105750000FE004F5AE508C2305FB03F3184404F569
:1057600080521344D3F8C435D3F8883004309847B6
:105770000135012D07DC012DEBD9364B3F4A612164
:10578000364833F039FD41F20870204418F0E4FE49
:105790000025012D19DC012D11D841F29C70204407
:1057A0008C2305FB03F3184404F580521344D3F80B
:1057B000A037D3F88830043098470135E9E7254B06
:1057C0002F4A6121254833F017FD41F6E4002044BB
:1057D00018F0C2FE0025012D19DC012D11D841F66B
:1057E000781020448C2305FB03F3184404F5805201
:1057F0001344D3F87C39D3F8883004309847013506
:10580000E9E7144B1F4A6121144833F0F5FC04F515
:10581000D65018F0A1FE0025012D19DC012D11D85C
:1058200041F6543020448C2305FB03F3184404F55F
:1058300080521344D3F8583BD3F88830043098474B
:105840000135E9E7034B104A6121044833F0D4FCE9
:1058500038BD00BF54C8030828D103080CC9030889
:105860009CD1030810D2030884D20308F8D203089D
:105870006CD30308E0D3030854D40308C8D4030846
:105880003CD50308B0D5030824D603082DE9F84F0A
:105890000446E74B03601EF06FFB04F54053E54AF6
:1058A000C3F8902BE44AC3F8902BE44AC3F8802B4A
:1058B000E34AC3F8802B04F58055E249C5F8A01EE1
:1058C000DFF8B093C5F8C89EDFF8AC83C5F8A08EAA
:1058D000DD4EC5F8A06EDD4AC5F8542EDC4BC5F888
:1058E000543EC5F8541EC5F87C9EC5F8548EC5F8C4
:1058F000546ED84FC5F8287EC5F8286EC5F8DC2D43
:10590000C5F8DC3DC5F8DC1DC5F8049EC5F8DC8D86
:10591000C5F8DC6DC5F8902DC5F8903DC5F8901D13
:10592000C5F8B89DC5F8908DC5F8906D0B46C5F8C3
:10593000481DC5F8709DC5F8488DC5F8486DC5F877
:10594000001DC5F8289DC5F8008DC5F8006DC24A38
:10595000C5F8B82CC5F8EC9CC049C5F8B81CC048BF
:10596000C5F8B80CC5F8B88CC5F8B86CC5F8703C6B
:10597000C5F8989CC5F8708CC5F8706C41F6543029
:105980002044FFF749FADFF8F4A2C5F894AAB54B12
:10599000C5F8943AB44AC5F8942ADFF8E4B2C5F8D9
:1059A000C0BAC5F8C07AC5F8C06AC5F8947AC5F817
:1059B000946A41F678102044FFF746FAC5F8B8A873
:1059C000A84BC5F8B838A84AC5F8B828C5F8E4B84F
:1059D000C5F8E478C5F8E468C5F8B878C5F8B868DB
:1059E00041F29C702044FFF747FAC5F8DCA69D4BB6
:1059F000C5F8DC369C4AC5F8DC26C5F808B7C5F8FA
:105A00000877C5F80867C5F8DC76C5F8DC6604F5E4
:105A1000AE50FFF749FAC5F800A5924BC5F800351E
:105A2000914AC5F80025C5F82CB5C5F82C75C5F800
:105A30002C65C5F80075C5F8006541F2E4302044D6
:105A4000FFF74AFAC5F824A3864BC5F82433864AE3
:105A5000C5F82423C5F850B3C5F85073C5F8506392
:105A6000C5F82473C5F8246341F208202044FFF7E9
:105A70004BFAC5F848A17B4BC5F848317A4AC5F8BE
:105A80004821C5F874B1C5F87471C5F87461C5F8DA
:105A90004871C5F848617048C5F80001C5F83491EF
:105AA0006E49C5F800116E48C5F80001C5F80081BF
:105AB000C5F800616D48C5F8CC006D48C5F8CC004C
:105AC000C5F8CC80C5F8CC60C5F8A070C5F8A0605A
:105AD0005C49A965C5F88090C5F85880AE65296114
