:020000040800F2
:1000000000000520491A0008651900086719000852
:10001000691900086B1900086D190008000000003C
:1000200000000000000000000000000051AD0008CA
:100030006F19000800000000F1AD000855AE00087F
:10004000991A0008991A0008991A0008991A0008C4
:10005000991A0008991A0008991A0008991A0008B4
:10006000991A0008991A0008991A0008991A0008A4
:10007000991A0008991A0008991A0008991A000894
:10008000991A0008991A0008991A0008991A000884
:10009000991A0008991A0008991A0008991A000874
:1000A000991A0008991A0008991A0008991A000864
:1000B000991A0008991A0008991A0008991A000854
:1000C000991A0008991A0008991A0008991A000844
:1000D000991A0008991A0008991A0008991A000834
:1000E000991A0008991A0008991A0008991A000824
:1000F000991A0008991A0008991A0008991A000814
:10010000991A0008991A0008991A0008991A000803
:10011000991A0008991A000871190008991A00081C
:10012000991A0008991A0008991A0008991A0008E3
:10013000991A0008991A0008991A0008991A0008D3
:10014000991A0008991A0008991A0008991A0008C3
:10015000991A0008991A0008991A0008991A0008B3
:10016000991A0008991A0008991A0008991A0008A3
:10017000991A0008991A0008991A0008000000004E
:10018000991A0008991A0008991A0008991A000883
:10019000991A0008991A0008991A0008991A000873
:1001A0007D190008991A000889190008991A000891
:1001B000991A0008991A0008991A0008991A000853
:0801C000991A0008991A0008C1
:1001D00010B5054C237833B9044B13B10448AFF381
:1001E00000800123237010BD2003002000000000C8
:1001F000F860030808B5034B1BB103490348AFF38C
:10020000008008BD0000000024030020F8600308FF
:1002100001F0FF01102A2BDB10F0070F08D010F8B7
:10022000013B013A8B422DD010F0070F42B3F6D1BB
:10023000F0B441EA012141EA014122F007047FF0D4
:1002400000070023F0E80256083C85EA010586EA2B
:10025000010685FA47F5A3FA87F586FA47F6A5FA67
:1002600087F68EB9EED1F0BC01F0FF0102F0070273
:1002700032B110F8013B013A83EA010313B1F8D11E
:100280000020704701387047002D06BF35460338FF
:10029000073815F0010F07D1013015F4807F02BF38
:1002A000013015F4C03F0130F0BC0138704700BF89
:1002B00081F0004102E000BF83F0004330B54FEA17
:1002C00041044FEA430594EA050F08BF90EA020F84
:1002D0001FBF54EA000C55EA020C7FEA645C7FEA17
:1002E000655C00F0E2804FEA5454D4EB5555B8BF3A
:1002F0006D420CDD2C4480EA020281EA030382EAAB
:10030000000083EA010180EA020281EA0303362D3C
:1003100088BF30BD11F0004F4FEA01314FF4801C0F
:100320004CEA113102D0404261EB410113F0004F21
:100330004FEA03334CEA133302D0524263EB4303D8
:1003400094EA050F00F0A780A4F10104D5F1200E76
:100350000DDB02FA0EFC22FA05F2801841F10001D1
:1003600003FA0EF2801843FA05F359410EE0A5F1A5
:1003700020050EF1200E012A03FA0EFC28BF4CF0D6
:10038000020C43FA05F3C01851EBE37101F000458C
:1003900007D54FF0000EDCF1000C7EEB00006EEB99
:1003A0000101B1F5801F1BD3B1F5001F0CD3490823
:1003B0005FEA30004FEA3C0C04F101044FEA44527A
:1003C00012F5800F80F09A80BCF1004F08BF5FEA01
:1003D000500C50F1000041EB045141EA050130BDE1
:1003E0005FEA4C0C404141EB0101013C28BFB1F5F3
:1003F000801FE9D291F0000F04BF01460020B1FA3E
:1004000081F308BF2033A3F10B03B3F120020CDA10
:100410000C3208DD02F1140CC2F10C0201FA0CF0EE
:1004200021FA02F10CE002F11402D8BFC2F1200C53
:1004300001FA02F120FA0CFCDCBF41EA0C01904009
:10044000E41AA2BF01EB0451294330BD6FEA040452
:100450001F3C1CDA0C340EDC04F11404C4F120023D
:1004600020FA04F001FA02F340EA030021FA04F34F
:1004700045EA030130BDC4F10C04C4F1200220FAA6
:1004800002F001FA04F340EA0300294630BD21FAE4
:1004900004F0294630BD94F0000F83F4801306BFAA
:1004A00081F480110134013D4EE77FEA645C18BF9E
:1004B0007FEA655C29D094EA050F08BF90EA020F35
:1004C00005D054EA000C04BF1946104630BD91EA2D
:1004D000030F1EBF0021002030BD5FEA545C05D130
:1004E0004000494128BF41F0004130BD14F580046F
:1004F0003CBF01F5801130BD01F0004545F0FE41E3
:1005000041F470014FF0000030BD7FEA645C1ABF17
:10051000194610467FEA655C1CBF0B46024650EA4E
:10052000013406BF52EA033591EA030F41F400217A
:1005300030BD00BF90F0000F04BF0021704730B500
:100540004FF4806404F132044FF000054FF00001D5
:1005500050E700BF90F0000F04BF0021704730B596
:100560004FF4806404F1320410F0004548BF40426B
:100570004FF000013EE700BF42004FEAE2014FEAC0
:1005800031014FEA02701FBF12F07F4393F07F4F9B
:1005900081F06051704732F07F4208BF704793F09E
:1005A0007F4F04BF41F40021704730B54FF46074B1
:1005B00001F0004521F000411CE700BF50EA0102B4
:1005C00008BF704730B54FF000050AE050EA01025D
:1005D00008BF704730B511F0004502D5404261EBCD
:1005E00041014FF4806404F132045FEA915C3FF40E
:1005F000D8AE4FF003025FEADC0C18BF03325FEAAB
:10060000DC0C18BF033202EBDC02C2F1200300FA5B
:1006100003FC20FA02F001FA03FE40EA0E0021FA80
:1006200002F11444BDE600BF70B54FF0FF0C4CF46E
:10063000E06C1CEA11541DBF1CEA135594EA0C0F20
:1006400095EA0C0F00F0DEF82C4481EA030621EA5B
:100650004C5123EA4C5350EA013518BF52EA033596
:1006600041F4801143F4801338D0A0FB02CE4FF048
:100670000005E1FB02E506F00042E0FB03E54FF078
:100680000006E1FB03569CF0000F18BF4EF0010E70
:10069000A4F1FF04B6F5007F64F5407404D25FEA6C
:1006A0004E0E6D4146EB060642EAC62141EA55511F
:1006B0004FEAC52040EA5E504FEACE2EB4F1FD0C61
:1006C00088BFBCF5E06F1ED8BEF1004F08BF5FEADF
:1006D000500E50F1000041EB045170BD06F0004691
:1006E00046EA010140EA020081EA0301B4EB5C043E
:1006F000C2BFD4EB0C0541EA045170BD41F4801136
:100700004FF0000E013C00F3AB8014F1360FDEBF5A
:10071000002001F0004170BDC4F10004203C35DA36
:100720000C341BDC04F11404C4F1200500FA05F3B9
:1007300020FA04F001FA05F240EA020001F000425A
:1007400021F0004110EBD37021FA04F642EB0601D0
:100750005EEA430E08BF20EAD37070BDC4F10C04FA
:10076000C4F1200500FA04F320FA05F001FA04F2BE
:1007700040EA020001F0004110EBD37041F10001AA
:100780005EEA430E08BF20EAD37070BDC4F12005B5
:1007900000FA05F24EEA020E20FA04F301FA05F21D
:1007A00043EA020321FA04F001F0004121FA04F2C5
:1007B00020EA020000EBD3705EEA430E08BF20EA95
:1007C000D37070BD94F0000F0FD101F000464000CF
:1007D00041EB010111F4801F08BF013CF7D041EA51
:1007E000060195F0000F18BF704703F00046520055
:1007F00043EB030313F4801F08BF013DF7D043EA26
:100800000603704794EA0C0F0CEA135518BF95EADB
:100810000C0F0CD050EA410618BF52EA4306D1D162
:1008200081EA030101F000414FF0000070BD50EA81
:10083000410606BF1046194652EA430619D094EA0B
:100840000C0F02D150EA013613D195EA0C0F05D1F5
:1008500052EA03361CBF104619460AD181EA030149
:1008600001F0004141F0FE4141F470014FF0000001
:1008700070BD41F0FE4141F4780170BD70B54FF09C
:10088000FF0C4CF4E06C1CEA11541DBF1CEA13551C
:1008900094EA0C0F95EA0C0F00F0A7F8A4EB0504FE
:1008A00081EA030E52EA03354FEA013100F08880F5
:1008B0004FEA03334FF0805545EA131343EA1263BE
:1008C0004FEA022245EA111545EA10654FEA002673
:1008D0000EF000419D4208BF964244F1FD0404F52C
:1008E000407402D25B084FEA3202B61A65EB030588
:1008F0005B084FEA32024FF480104FF4002CB6EB45
:10090000020E75EB030E22BFB61A754640EA0C00C4
:100910005B084FEA3202B6EB020E75EB030E22BF04
:10092000B61A754640EA5C005B084FEA3202B6EB45
:10093000020E75EB030E22BFB61A754640EA9C0004
:100940005B084FEA3202B6EB020E75EB030E22BFD4
:10095000B61A754640EADC0055EA060E18D04FEA92
:10096000051545EA16754FEA06164FEAC30343EA32
:1009700052734FEAC2025FEA1C1CC0D111F4801FFF
:100980000BD141EA00014FF000004FF0004CB6E7F8
:1009900011F4801F04BF01430020B4F1FD0C88BF97
:1009A000BCF5E06F3FF6AFAEB5EB030C04BFB6EBA2
:1009B000020C5FEA500C50F1000041EB045170BD95
:1009C0000EF0004E4EEA113114EB5C04C2BFD4EBC2
:1009D0000C0541EA045170BD41F480114FF0000E46
:1009E000013C90E645EA060E8DE60CEA135594EAC2
:1009F0000C0F08BF95EA0C0F3FF43BAF94EA0C0FC5
:100A00000AD150EA01347FF434AF95EA0C0F7FF439
:100A100025AF104619462CE795EA0C0F06D152EA8D
:100A200003353FF4FDAE1046194622E750EA410671
:100A300018BF52EA43067FF4C5AE50EA41047FF482
:100A40000DAF52EA43057FF4EBAE12E74FEA4102E5
:100A5000B2F1E04324BFB3F5001CDCF1FE5C0DD91C
:100A600001F0004C4FEAC0024CEA5070B2F1004F66
:100A700040EB830008BF20F00100704711F0804F69
:100A800021D113F13872BCBF01F00040704741F42E
:100A900080114FEA5252C2F11802C2F1200C10FA32
:100AA0000CF320FA02F018BF40F001004FEAC12316
:100AB0004FEAD32303FA0CFC40EA0C0023FA02F3BA
:100AC0004FEA4303CCE77FEA625307D150EA013390
:100AD0001EBF4FF0FE4040F44000704701F0004060
:100AE00040F0FE4040F40000704700BF7BB972B98F
:100AF0000029BEBF00204FF0004106E008BF0028DB
:100B00001CBF6FF000414FF0FF3000F0B5B9ADF100
:100B1000080C6DE904CE002909DB002B1ADB00F07C
:100B20004DF8DDF804E0DDE9022304B070474042EF
:100B300061EB4101002B1BDB00F040F8DDF804E025
:100B4000DDE9022304B0404261EB4101524263EB14
:100B500043037047524263EB430300F02FF8DDF884
:100B600004E0DDE9022304B0404261EB410170473B
:100B7000524263EB430300F021F8DDF804E0DDE9C5
:100B8000022304B0524263EB4303704753B94AB99E
:100B9000002908BF00281CBF4FF0FF314FF0FF3085
:100BA00000F06AB9ADF1080C6DE904CE00F006F86A
:100BB000DDF804E0DDE9022304B070472DE9F047D9
:100BC000089D0C46002B4ED194468C458646B2FAC1
:100BD00082F262D94AB1C2F12003914020FA03F3B4
:100BE0000CFA02FC194300FA02FE4FEA1C471FFAF6
:100BF0008CF6B1FBF7F44FEA1E4307FB141143EAEE
:100C0000014304FB06F199420AD91CEB030304F1EA
:100C1000FF3080F01281994240F20F81023C634420
:100C2000591A1FFA8EF3B1FBF7F007FB101143EAD4
:100C3000014300FB06F69E420AD91CEB030300F1B8
:100C4000FF3180F0FC809E4240F2F980634402381C
:100C50009B1B40EA044000211DB1D3400022C5E99E
:100C60000032BDE8F0878B4205D90DB1C5E900011E
:100C700000210846F5E7B3FA83F1002946D1A342E3
:100C800002D39042C0F0F080861A64EB0303012087
:100C9000002DE6D0C5E90063E3E7002A40F090802C
:100CA000A1EB0C044FEA1C481FFA8CF70121B4FB9E
:100CB000F8F64FEA1E4308FB164443EA044307FBD9
:100CC00006F0984208D91CEB030306F1FF3402D268
:100CD000984200F2CD8026461C1A1FFA8EF3B4FB10
:100CE000F8F008FB104443EA044300FB07F79F4277
:100CF00008D91CEB030300F1FF3402D29F4200F23B
:100D0000B0802046DB1B40EA0640A5E7C1F1200683
:100D10008B4022FA06F71F4320FA06FC04FA01F37F
:100D200043EA0C03F44000FA01F8380C4FEA134987
:100D3000B4FBF0FE1FFA87FC00FB1E4449EA0444A2
:100D40000EFB0CF9A14502FA01F20AD93C190EF189
:100D5000FF3A80F08480A14540F28180AEF1020E1E
:100D60003C44A4EB09041FFA83F9B4FBF0F300FB45
:100D7000134449EA044403FB0CFCA44507D93C197D
:100D800003F1FF3067D2A44565D9023B3C4443EAF6
:100D90000E40A0FB0293A4EB0C049C42CE469C4662
:100DA00051D34ED055B1B8EB0E0364EB0C0404FAEA
:100DB00006F6CB401E43CC40C5E90064002150E755
:100DC000C2F1200320FA03F10CFA02FC24FA03F327
:100DD00094400C434FEA1C4800FA02FE1FFA8CF7BD
:100DE000B3FBF8F008FB1031230C43EA014300FB8E
:100DF00007F1994208D91CEB030300F1FF362CD20E
:100E000099422AD9023863445B1AA4B2B3FBF8F1C1
:100E100008FB113344EA034401FB07F3A34208D95A
:100E20001CEB040401F1FF3613D2A34211D902399D
:100E30006444E41A41EA004139E70446F0E6084612
:100E400006E7C845AED2B9EB020E63EB070C0138DA
:100E5000A8E73146EDE7034699E73046D4E7D646A2
:100E60007FE7634402384DE70646234608460FE70E
:100E7000023E634430E700BF704700BF01490020D5
:100E80000BF064B9451F000808B5642009F072FB37
:100E9000FBE7000010B594B030220021022408A81E
:100EA00034F048FA1422002103A834F043FA1D4B11
:100EB000192108A81A6C42F080521A641B6C03F0C6
:100EC00080530193019B184B1A6842F440421A6008
:100ED00001221B6803F440430293029B4FF48033CA
:100EE000CDE908234FF48003CDE90E434FF4D873C6
:100EF000CDE91244CDE9101308F0E6FA07F076FFC9
:100F00000F2300200721CDE903344FF4A053CDE98E
:100F100005034FF4805303A8079308F0B7FC14B0FF
:100F200010BD00BF00380240007000402DE980482D
:100F30009BB01022002101250DA84FF0104934F07C
:100F4000F9F9002406F034FEC74B0DA8ADF8345073
:100F50001094CDE90E9306F049FE17230DA88DF8E5
:100F600035508DF83C308DF8425006F03FFE04209D
:100F700006F02CFEBFF34F8FBFF36F8FBB4AC2F852
:100F80005042BFF34F8FBFF36F8F536943F4003369
:100F90005361BFF34F8FBFF36F8FC2F88440BFF32D
:100FA0004F8FD2F8803043F6E074C3F3C900C3F327
:100FB0004E335B0103EA0406014646EA81750139B6
:100FC000C2F86052F9D2203B13F1200FF2D1BFF3E7
:100FD0004F8F536943F480335361BFF34F8FBFF397
:100FE0006F8F06F04BFD0024FFF754FF1422002101
:100FF0000DA834F09FF99E4B10219E481A6B0127D3
:101000004FF010084FF0030B42F010024FF4805ADB
:10101000994D4FF004091A631A6B984E02F01002B2
:101020000292029A1A6B42F002021A631A6B02F0E1
:1010300002020392039A1A6B42F001021A631A6BBE
:1010400002F001020492049A1A6B42F040021A6301
:101050001A6B02F040020592059A1A6B42F4007274
:101060001A631A6B02F400720692069A1A6B42F027
:1010700008021A631A6B02F008020792079A1A6BA9
:1010800042F480621A631A6B02F480620892089A32
:101090001A6B42F020021A631A6B02F020020992C6
:1010A000099A1A6B42F480721A631A6B02F4807206
:1010B0000A920A9A1A6B42F080021A631A6B02F0C3
:1010C00080020B920B9A1A6B42F004021A63002200
:1010D0001B6B03F004030C930C9B07F0E9F801224F
:1010E0000821674807F0E4F801224FF48051654871
:1010F00007F0DEF80022C021634807F0D9F800228B
:101100004021624807F0D4F80DA95A48CDE90D876F
:10111000CDE90F4B06F046FF08230DA95848CDE94D
:101120000D37CDE90F4406F03DFF0DA95548CDE937
:101130000DA7CDE90F4406F035FFC0220DA9524896
:10114000CDE90D27CDE90F4B06F02CFF40220DA96C
:101150004E48CDE90D27CDE90F4B06F023FF4C4853
:101160004C49848001600762C0E9054406F06AFDCD
:1011700049492846C5E90014C5E90244C5E90A44BD
:10118000C5E90C4406F003FE39462846434D06F0F7
:10119000BFFE40234FF4C07241493046B460F46151
:1011A000B462C6E905324FF40062C6E9082A4FF07E
:1011B000020A0722C6E900140DA9CDF84CA0C6E921
:1011C0000398CDE90DA2CDE90F92CDE911BA08F04F
:1011D000D1FE29464FF6FF7230460194C5E90078EA
:1011E000C5E9027408F0E6FE384606F06BFC2946B5
:1011F0004FF6FF723046C5E900A8C5E9027408F051
:10120000D9FE082329464FF6FF723046C5E900B8DB
:10121000C5E9023408F0CEFE4FF40C734FF6FF72AE
:10122000294601933046019BAF60EB60C5E9009809
:1012300008F0C0FE40F22B7130461A4D08F0D9FE7E
:101240004FF0204343F2D202642040F215261A6088
:1012500006F038FC144B154A28462C62C5E90023D9
:10126000C5E9024724E000BF1B00000300ED00E0D9
:101270000038024000040240D4040020580300203B
:1012800000280240002002400008024000180240EE
:10129000140500200030024000B002403C03002052
:1012A000400100A08004002068474020005C00400E
:1012B000C5E90444C5E9064407F040F9214628463B
:1012C00007F06EFB214628463E4D07F095FB342281
:1012D00021460DEB020034F02DF83B4B2821352040
:1012E00040F2352C2C61AC8685F83640C5E90034D7
:1012F0000923C5E905130B23C5E9070340F21B13B6
:101300002846C5E9096340F21D13C5E90244C5E951
:101310000BC307F03FFCFF214FF4806E4FF4F072D7
:101320004FF4887328460D941893ADF864408DF8F7
:101330006640CDE912140521CDE914E14FF040419A
:10134000CDE90E24CDE9161222460DA9CDE9103AB9
:1013500007F0FDFC1D481E4B0462C0E90037C0E9E0
:1013600002984FF4A0634FF01808C0E90644C0E9A2
:10137000048307F057FE06F001FA06F047F95C20F7
:1013800006F004FC00F05EFB00F088FB00F085FB3B
:1013900009F062F80F4A21460F4809F097F80F4B01
:1013A0000F4A214618600F4809F090F80E4B0F4A7B
:1013B000214618600E4809F089F80E4B186009F0B4
:1013C00065F8FEE7D8030020006801408C03002088
:1013D000001000A0BC610308890E0008540300201F
:1013E00098610308AB1A00085003002074610308D9
:1013F000C53600084C0300200268034B9A4201D115
:1014000006F04EBB704700BF001000407047000060
:101410000D4B82B00F216FF001001A6C42F0805228
:101420001A641A6C02F080520092009A5A6C42F4CC
:1014300080425A6400225B6C03F480430193019B59
:1014400002B006F063BB00BF00380240026882B001
:10145000084B9A420BD1D3F8302803F5006342F4CD
:1014600080521A631B6B03F480530193019B02B0FB
:10147000704700BF003002400E4B07B502689A4229
:1014800015D1A3F5F04305215A201A6B42F400024E
:101490001A6300221B6B03F400030193019B06F007
:1014A00035FB5A2003B05DF804EB06F061BB03B0D6
:1014B0005DF804FB00B0024010B5A8B00446142249
:1014C000002102A833F036FF8422002107A833F060
:1014D00031FF2268174B9A422AD14FF4803307A874
:1014E000079308F0A3FA08B1FFF790FF124C4FF4EE
:1014F000C07201211148236B43F080032363236BE7
:1015000003F080030093009B1223CDE90223032301
:10151000CDE90413042302A9069306F043FD236CCE
:1015200043F400032364236C03F400030193019B41
:1015300028B010BD005C004000380240001C024092
:1015400008B50A4B02689A420FD1094A802109481E
:10155000136C23F40003136406F00AFE4FF4807149
:101560000448BDE8084006F003BE08BD005C00402A
:1015700000380240001C024070B5ACB00446142292
:10158000002106A833F0D6FE842200210BA833F0F8
:10159000D1FE2268484B9A4240F08C8008230520F7
:1015A00001240B934FF4C07310930223CDE9113043
:1015B0004FF400330BA8CDE9154308F037FA08B112
:1015C000FFF724FF3D4B002402250E265A6C06A986
:1015D0003B4842F080625A645A6C02F0806200928A
:1015E000009A1A6B42F010021A631A6B02F0100292
:1015F0000192019A1A6B42F400721A631A6B02F498
:1016000000720292029A1A6B42F480621A631A6B99
:1016100002F480620392039A1A6B42F040021A634A
:101620001A6B02F040020492049A1A6B42F4807220
:101630001A631B6B03F480730593059B1023CDE99C
:101640000635CDE908440A9606F0ACFC4EF6FF7369
:1016500006A91C480A96CDE90635CDE9084406F0EE
:10166000A1FCF72306A918480A96CDE90635CDE96D
:10167000084406F097FC4FF4805306A91348CDE9BF
:1016800006350923CDE908440A9306F08BFC4FF494
:10169000464306A90E480A96CDE90635CDE9084429
:1016A00006F080FC58202246052106F02FFA58202B
:1016B00006F05EFA2CB070BD0068014000380240B0
:1016C000001002400024024000280240001802409E
:1016D00000200240142200212DE9F0418AB0044686
:1016E0000DEB020033F026FE22682C4B9A4251D1BA
:1016F0002B4B0225032409269A6B4FF0040805A9F9
:10170000284842F0020200279A639A6B02F0020214
:101710000192019A1A6B42F010021A631A6B02F0DE
:1017200010020292029A1A6B42F002021A631A6BBA
:1017300002F002020392039A1A6B42F008021A6343
:101740001B6B03F008030493049BCDE90585CDE9E9
:10175000084606F027FC402305A91348CDE90535C6
:101760000A23CDE90774099306F01CFC05A90E486D
:101770000996CDE90585CDE9077406F013FC4FF411
:10178000605305A909480996CDE90535CDE90774E7
:1017900006F008FC0AB0BDE8F08100BF001000A010
:1017A000003802400010024000040240000C0240D9
:1017B00008B50C4B02689A4213D10B4A04210B481E
:1017C000936B23F00203936306F0D2FC4421084894
:1017D00006F0CEFC4FF460510648BDE8084006F024
:1017E000C7BC08BD001000A0003802400010024035
:1017F00000040240000C0240F0B5002387B00393C0
:10180000294B1E68002E4DD10122022703250C24EE
:101810001A6001A9254B26489A6B42F001029A638F
:101820009B6B03F001030093009B4FF68373CDE99C
:101830000454CDE9013706F0B5FB48F2331301A992
:101840001C480594CDE90137CDE9036506F0AAFBF4
:101850004CF2037301A918480594CDE90137CDE98D
:10186000036506F09FFB4FF63F0301A9134805945B
:10187000CDE90137CDE9036506F094FB282301A9E2
:101880000F480594CDE90137CDE9036506F08AFBE1
:10189000082301A90B480594CDE90137CDE903657B
:1018A00006F080FB07B0F0BD38050020003802408C
:1018B0000010024000180240000C024000140240D8
:1018C000001C024000080240214B70B51A6C88B021
:1018D000054642F0100201A903A81A641B6C03F02C
:1018E00010030293029B08F083F8069B4BBB08F0A1
:1018F0006FF8184E184B336040F2E733F360174B24
:10190000B0FBF3F3013B3046736000233361B360F7
:10191000B36108F0DBFC044680B9304608F082FB76
:10192000044658B9362006F023F90F2D0DD822466B
:101930002946362006F0EAF8094B1D60204608B01B
:1019400070BD08F045F84000D3E70124F6E700BF7A
:10195000003802403C0500200010004040420F00CB
:101960003C0000207047FEE7FEE7FEE7FEE7704719
:10197000014808F09BBB00BF3C050020014807F070
:1019800085B900BFD8030020014806F030BA00BF77
:10199000D40400200120704708B533F07FFD1623E2
:1019A00003604FF0FF3008BD08B533F077FD162314
:1019B0000360FEE770B50D4614460E46731B9C424D
:1019C00001DC204670BDAFF3008006F8010BF5E79F
:1019D00070B50D4614460E46731B9C4201DC204632
:1019E00070BD16F8010BAFF30080F5E74FF0FF3044
:1019F00070474FF4005300204B6070470120704740
:101A0000002070470B4A034610B5116809B90A490E
:101A10001160106809490A4C0344091B8B4206D91E
:101A200033F03CFD0C2303604FF0FF3010BD13601A
:101A3000FCE700BF880500209897012000000520E2
:101A4000000A000070470000DFF834D0002103E0F6
:101A50000C4B5B58435004310B480C4B42189A42D4
:101A6000F6D30B4A02E0002342F8043B094B9A42AA
:101A7000F9D305F01BFF33F017FDFFF757FA704756
:101A8000000005206CDD030800000020200100207C
:101A90002003002098970120FEE7704708B501F069
:101AA000A5F9BDE8084001F021B901F0A1B94068ED
:101AB00070474160704700004FF0E022D2F8FC3DD3
:101AC00043F08073C2F8FC3D054B064AD3F8B01FC3
:101AD0000A43C3F8B02F1A6842F001021A60704737
:101AE000001000E055CEACC5521A02EB5302B2FB17
:101AF000F3F07047014B5868704700BF001000E0DA
:101B0000704710B504460C2132F020FA204610BD73
:101B100010B5036804461B6931B19847A268636831
:101B20009B1A0344636010BD9847A060FBE7000068
:101B3000024B7020024A1360DB6818471000002037
:101B40008C050020704710B50446042132F0FEF9E0
:101B5000204610BD73B50E4E0D461446336813B9BA
:101B6000002002B070BD1B69702098470028F7D094
:101B70003368702001AA0DF106015B699847BDF832
:101B8000043001202B60BDF806302360E9E700BF78
:101B90008C0500207FB501238DF817204FF47A7251
:101BA000CDE901320DF1170200920A4601460548BF
:101BB00006F03AFD10B1034806F01CFD07B05DF8D1
:101BC00004FB00BF800400207FB500230A464FF4C9
:101BD0007A718DF817300123CDE901310DF117012C
:101BE00000910146054806F0FBFD10B1034806F0E0
:101BF00001FD9DF8170007B05DF804FB800400208C
:101C0000032823D8DFE800F0020B131A104B102131
:101C100010481A68B2FA82F2520906F049BB0C4B1E
:101C200040215A68B2FA82F252090B48F5E7084B94
:101C300080219A68B2FA82F25209F6E7044B4021F9
:101C40000648DA68B2FA82F25209E6E7704700BF46
:101C500090050020000402400008024000180240E5
:101C6000032823D8DFE800F0020B131A104B1021D1
:101C700010481A68003A18BF012206F019BB0C4B35
:101C800040215A68003A18BF01220B48F5E7084B7B
:101C900080219A68003A18BF0122F6E7044B4021E0
:101CA0000648DA68003A18BF0122E6E7704700BF2D
:101CB0009005002000040240000802400018024085
:101CC00003280FD8DFE800F00206090B10210648B0
:101CD00006F0F3BA40210548FAE78021FBE74021EE
:101CE0000348F5E7704700BF0004024000080240C7
:101CF0000018024008B5032813D8DFE800F0020AF4
:101D00000D0F1021084806F0CDFA431E58425841E5
:101D100008BD40210548F6E78021FBE74021044843
:101D2000F1E70020F1E700BF000402400008024094
:101D30000018024070B5084D00240126E0B2FFF7FC
:101D4000D9FF18B12B68012B18BF2E600134043560
:101D5000052CF3D170BD00BF90050020012380F851
:101D6000781080F87930704700207047416400395E
:101D7000024B18BF01211970704700BFEF8B012083
:101D800000207047836B0BB10846184770474FF629
:101D9000FF707047406803689B69184770470000F0
:101DA00038B5044601F0B4F9084923682046084DC7
:101DB000D3F88C3098470023284684F84A30FFF740
:101DC0007BFE0123256184F8703038BD000000C01F
:101DD000A005002001F03EB901F042B970B501F054
:101DE000C1F910490023C1F88430BFF34F8FD1F8F7
:101DF000803043F6E074C3F3C900C3F34E335B0194
:101E000003EA0406024646EA8275013AC1F87452B2
:101E1000F9D2203B13F1200FF2D1BFF34F8FBFF364
:101E20006F8F70BD00ED00E001F09EB901F0EEB8DB
:101E300001F0C0BA01F0C8BA01F0F2B810B504461A
:101E400019F072FE23682046D3F8AC30BDE810408C
:101E5000184719F0C7B810B504467C2132F076F85F
:101E6000204610BD10B590F8784090F834100C4B17
:101E70008C421A7809D03AB90A490B4A0888148862
:101E8000108001220C801A7010BD002AFCD0064A76
:101E90000449148808880C8010800022F3E700BFF2
:101EA000E88B0120E68B0120E48B012070B50D4604
:101EB000194635B9094B40F2D221094A094832F096
:101EC0008BFFC0E90F52003A074B18BF01221A706E
:101ED0000368BDE87040D3F88C30184720620308CF
:101EE00058620308A6620308EE8B012008B5094B6F
:101EF0001B888B4203D8084B1B88934205D9074B9C
:101F00009E21074A074832F067FF074B1980074BAD
:101F10001A8008BDE48B0120E68B0120EB620308E8
:101F20004E630308A6620308EA8B0120EC8B0120B4
:101F3000034690F87A0018B1586803681B68184780
:101F40007047000008B50146034B186801B1012134
:101F500019F004FE012008BDF08B01200448002385
:101F6000044A43608360044B0449036031F0E9BFD5
:101F7000A005002000000020E8610308011B000804
:101F80000121002208B5084608F0AAFB0A4B186098
:101F900028B90A4B28210A4A0A4832F01DFF0022BC
:101FA0000421012008F066FC074B186018B9074BA4
:101FB0002C21034AF0E708BDB00500206C6403083B
:101FC000B5640308E4640308AC0500202465030835
:101FD000024B4FF0FF31186808F0DABBB005002063
:101FE000014B186808F010BCB0050020024B00211E
:101FF000186808F0CDBB00BFB0050020FFF7F0BFA8
:102000000023034803491A46006808F079BC00BF62
:10201000AC0500200400002013B50023074C01A9E3
:102020001A46206808F0AEFC4FF0FF33002201A9E9
:10203000206808F0A7FC02B010BD00BFAC0500206E
:1020400003685B6C18470120704703689B6A184758
:10205000FEE700000E4B82B01A6B42F400021A63D6
:102060001A6B02F400020192019A1A6942F400020A
:102070001A611A6922F400021A61064B064A1A61B3
:10208000064A5A614FF08062054B9A6002B0704771
:1020900000380240D40400204D23000851200008DD
:1020A00000E100E040F2EF3070470000054B4FF0D8
:1020B00080620360044BC3F88820BFF34F8FBFF3E7
:1020C0006F8F7047B466030800E100E010B5044666
:1020D0004FF45A61FFF7EAFF204631F037FF204600
:1020E00010BD000008B50A2809D8DFE800F0061086
:1020F0000E080808081010101000022008BD054B3B
:102100009021054A054832F067FE0020F6E70120DD
:10211000F4E700BF6665030881650308CC65030822
:1021200010B5887F0C46FFF7DDFF1C4B5863A18A72
:10213000E28A42EA01425A642269DA63628BA18A26
:10214000521A1A642268082A16D1A18A628B521A7E
:102150009A61A18A628B521A1A615862104A217FD1
:1021600042EA0162DA61E2681A6222695A6122690E
:10217000DA600C4A1A6010BD0022D8611A61E16869
:102180000A0A4809C1F3C40102F4784200F4FC6071
:1021900002430A439A63044AECE700BF00B00240DE
:1021A00009000100012302000123030008B50B28E8
:1021B0000BD8DFE800F00612100A0A0A0A0808081D
:1021C0000808022008BD0520FCE7054B6F21054AE1
:1021D000054832F001FE0020F4E70120F2E700BFDD
:1021E000666503080A660308CC650308F8B50C4663
:1021F000487FFFF7DBFF0546A77F3846FFF7D6FF8E
:1022000006463846FFF76EFFA38A628BD21A474B09
:102210001A64A18A628B521A9A61A18A228B521A7D
:102220001A615863A18AE28A42EA01425A64226929
:10223000DA636268DA60216880292BD0227F11D8A6
:10224000202969D0402967D004291DD045EA0265BC
:10225000364B45F40035DD61617FA27F914261D04C
:10226000334A46E0B1F5807F04D0B1F5007FEDD16F
:10227000304900E0304941EA0262DA61E2681A62FC
:102280005E6222695A6133E045EA026242F400323A
:10229000DA61F5E7A068021DDA62227F45EA026290
:1022A00042F40032DA615E6222695A61027842B118
:1022B000012A20D0214B4FF48D71214A214832F060
:1022C0008BFDDA69418822F47F42013922F0100245
:1022D00042EA01220121DA61144BDA6942F020025C
:1022E000DA61DA699206FCD410229A600029B7D02C
:1022F000154A1A60F8BDDA69408822F47F42217FCE
:10230000013822F01002FF3942EA002218BF0121F1
:1023100042F01002DA61DFE745EA0262034B42F461
:102320000032B5E742F20132E3E700BF00B00240FD
:1023300001230100090002000A000200546603089C
:102340006E660308CC65030801230200024B1B687C
:10235000586803685B691847F08B012070B5044624
:102360000A4B0C3000262546602260602672667299
:1023700045F8203B294619F047FD04F55A63EE6005
:1023800024359D42FBD1204670BD00BFB4660308D2
:10239000034B1A68D207FCD423229A60704700BF0F
:1023A00000B00240094B5A69D2030AD5BFF34F8FE0
:1023B00008440029A0EB010204DCBFF34F8FBFF3F8
:1023C0006F8F70472039C3F86822F2E700ED00E014
:1023D00030B5104C2568ED07FCD423250904FF2BEC
:1023E000A56041F001014FF0020565636164E0639F
:1023F0000AD00949656241EA0363E361074B22623F
:102400006061E060236030BDE561039BA363044B22
:10241000F8E700BF00B0024009000100010002001F
:102420000100030030B50F4C2568ED07FCD42325CF
:102430001204FF2BA56042F001024FF00205656314
:102440006264E063E16008D01B0643F00213E361BD
:10245000054B65626061236030BD044BE36101237D
:10246000F9E700BF00B0024001000200020002FFD5
:1024700030B50B4C2568ED07FCD4232512041B0650
:10248000A56042F00102022543F4003365636264F3
:10249000E063E160E361034B65626061236030BD2E
:1024A00000B00240010002004069704790F844000B
:1024B0007047036B23B9C06A003818BF012070470A
:1024C0000120704780687047043010B50C460FC873
:1024D00084E80F0010BD704708B5034A40F212218E
:1024E000024B034832F078FCFC660308C9990308E4
:1024F0005767030810B50446482131F027FD2046F0
:1025000010BD00002DE9F0431C46436BADF51F7D67
:1025100005460E461746002B37D0002203A8DFF8E9
:10252000A890CDE9013210F01BFC4FF4F472502159
:10253000249024A80AF0ABFA3A46314624A80BF0BE
:1025400047FA012124A80AF0AFFB022324A88DF842
:10255000D8300AF054FCBDF898322B9ABDF89C6232
:102560009342A89F28BF1346419A964203EB430823
:10257000A7EB430728BF1646479B9E4209D824A8CD
:102580000AF0B7FB24A80AF0D5FA0DF51F7DBDE8C7
:10259000F083012201A924A80AF07EFC6B6B03EBF7
:1025A0000800984201D83C44E6E759789A78C90077
:1025B00009EA022201F4FC610A4313F8031B42EA10
:1025C000D10224F8022BECE700F8FFFF0A4A026070
:1025D0000022C0E90522C0E90722C0E90922C0E9BA
:1025E0000B22C0E90D12C0E90F2280F84420C0E997
:1025F0000322C0E901227047286A030810B40C4680
:1026000011461A46036B3BB1036C806BE41A2044FD
:102610005DF8044B32F096BEC06AF8E710B5036B64
:1026200073B1036C826BC91A5318525C98785C784A
:102630000004DB7840EA0420104340EA036010BD48
:10264000C36A5858FBE7036B43B1036CC91A836B29
:102650005A18585C527840EA02207047C36A585AA8
:102660007047000070B50446006B0D461646D8B1A1
:10267000E36B934208D209230D4A65210D4884F883
:1026800044300D4B32F0A8FB0368DB689847206BA1
:102690003246A16B03681B69984710B90D2384F873
:1026A0004430A06B256470BDE06A0844FBE700BFBE
:1026B000B467030857670308A16703082DE9F843C7
:1026C000436904462BB9234BAA21234A234832F0FD
:1026D00083FB08228169FFF7C5FFA16943F2300639
:1026E00046F2643704312046FFF798FFA369184487
:1026F000A36A00F108029A4206D301230020636115
:10270000236AA361BDE8F8836369093008220133B5
:1027100020F0010120466361A161FFF7A3FFD4F817
:10272000189020464946FFF78EFF09F102018046C6
:102730002046FFF788FF09F1040105462046FFF710
:102740006DFFB045D2D1BD42D0D10028CED00120FE
:10275000D8E700BFF66703083F6803085767030818
:102760002DE9F04F0446ADF51F7D8A461646816976
:1027700008229846FFF776FFA7692046391DFFF724
:102780004DFF07F10801024605462046FFF76AFFA4
:10279000636B074633B93C4B40F2AB113B4A3C48B4
:1027A00032F01AFB002203A8CDE9013210F0D8FA6A
:1027B0004FF4F4725021249024A80AF068F92A46B4
:1027C000394624A80BF004F9012124A80AF06CFA78
:1027D000022324A88DF8D8300AF011FBBAF9025070
:1027E000479BAB4229D3BAF900904FEA4808BAF8A0
:1027F00004702B9B08FB05664F44BAF80250DFF8C3
:1028000094B03FB29F4228BF1F46BAF8063009EB8A
:10281000490A1D44419B2DB29D4228BF1D46479B3E
:10282000AB4210D324A80AF064FA24A80AF082F973
:1028300001200DF51F7DBDE8F08F012201A924A81C
:102840000AF02AFBCCE7012201A924A80AF024FB04
:10285000626B49465244B94202F1030201D3464435
:10286000DDE712F8020C12F8013CC0000BEA03236A
:1028700000F4FC60034312F8030C43EAD00326F88B
:1028800011300131E7E700BF72680308C868030828
:102890005767030800F8FFFF012938BF012170B511
:1028A00003680D460446DB6A9847A84204D22368B1
:1028B0002046DB6A984705466B1EE66910222046D3
:1028C00006EB031606F10801FFF7CCFE06F1100136
:1028D0002046FFF7A3FE236A043B0344C4E90553E3
:1028E00070BD0000002148222DE9F04104468161BD
:1028F00080F84410FFF7B6FEA6690423624A314609
:102900002046FFF77BFE40B10323604AF22184F8A2
:1029100044305F4B5F4832F05FFA06F10801042350
:102920005D4A2046A161FFF769FE30B10423574A92
:10293000FA2184F84430594BECE706F10C010423EA
:10294000574A2046A161FFF759FE074638B10523D3
:102950004E4A40F2011184F84430524BDAE706F156
:1029600010012046FFF75AFE054620B94E4B40F2B3
:102970000711464ACEE706F1140804234B4A2046C5
:102980004146FFF73BFE002849D0062384F8443037
:102990000423474A06F118012046FFF72FFE0028BE
:1029A0003FD0072384F844304544424F0C22204650
:1029B0002946FFF757FE05F1080604233A4620464C
:1029C0003146FFF71BFE94F84430002848D0002B16
:1029D00048D1A36AAB4249D805F10C03043520461F
:1029E000A3612946FFF71AFE30442946606220465B
:1029F000FFF714FE0644042220463146FFF732FE5C
:102A000004232D4A31462046FFF7F8FD002838D12F
:102A10000123E6616361A3692362BDE8F0810127B8
:102A2000B6E7002FC0D006F120012046FFF7F6FDE3
:102A30004FF47A7306F13001B0FBF3F0606020468A
:102A4000FFF7ECFD06F14001A0602046FFF7E6FD30
:102A500006F14401E0602046FFF7E0FD2061A3E7B6
:102A6000002BB9D00A2384F84430D6E7291D20462C
:102A7000FFF7D4FD85190C2220462946FFF7F2FD09
:102A800099E70B23EFE700BF2269030840690308B9
:102A900027690308576703086D690308726903080B
:102AA0008A6903088F690308A5690308B1690308E7
:102AB000B6690308BB690308C0690308C0E90A21B5
:102AC00000220263FFF70EBF10B50023044608463C
:102AD0002163E3620B689B689847A0622046BDE8CB
:102AE0001040FFF7FFBE70B4BDF80C50BDF8106089
:102AF0002AB123B1CDE9035670BCFFF703BD70BC0A
:102B0000704700002DE9F04F9946436985B00446AF
:102B10000F4690462BB9294B7721294A294832F094
:102B20005BF908228169FFF79DFDA66920463146C1
:102B3000FFF789FDB11C83462046FFF784FD311D58
:102B400082462046FFF76AFD06F10801A36A0546A2
:102B500042189A4226D243F230039B4517D146F2DF
:102B600064339A4513D190B10246A1612046FFF724
:102B700079FD0E9B01462A462046CDF80080CDE91E
:102B800001933B46FFF7AFFF636901336361A369BC
:102B90002B4405B908330133626A23F001039342E1
:102BA000A36109D1012301206361236AA36180F03D
:102BB000010005B0BDE8F08F0020F8E7F6670308D4
:102BC000C5690308576703087047704770470120BD
:102BD00070470C2070470C2303FB0100083070473E
:102BE0000C2303FB0100083070470120704743F6B7
:102BF0001010704743F6101303FB010008307047B4
:102C000043F6101303FB01000830704701207047A2
:102C10001020704700EB01100830704700EB0110E6
:102C200008307047084600F085BF0000034B10B520
:102C30000446036017F0D6F8204610BDD06A03089A
:102C400010B50446FFF7F2FF1421204631F07EF95B
:102C5000204610BD034B10B50446036017F0C2F8C0
:102C6000204610BD9C6A030810B50446FFF7F2FF2A
:102C700043F61811204631F069F9204610BD0000D6
:102C8000034B10B50446036017F0ACF8204610BDA6
:102C9000686A030810B50446FFF7F2FF18212046C2
:102CA00031F054F9204610BD094B10B504460360BD
:102CB00000F565500430FFF7B9FF04F12C00FFF771
:102CC000C9FF04F11400FFF7DBFF204610BD00BF71
:102CD000046B030810B50446FFF7E6FF43F6CC216A
:102CE000204631F033F9204610BD00002DE9F341B4
:102CF00000F096FD0024054600F096FD23460146AF
:102D000022462846009422F0BFF8294B294A204643
:102D1000294D1A6002F05EFF284B294A29489A6023
:102D200022F01AF82B68BFF35B8FDB0739D42846F3
:102D300031F00EF9002834D0234C244F244B04F1F9
:102D4000140007F12C0604F12C0823606060C4F81D
:102D50000880E760266117F047F81E4B4046636124
:102D600017F042F81C4B3846E36217F03DF804F5C3
:102D700040531A4A03F65810C3F8442903F057FF8A
:102D8000224607F11401304603F03CFF304600F0C4
:102D9000D1FE134A1349204631F0D3F8284631F0CA
:102DA000E3F8114802B0BDE8F041FEF7F9BF00BFFB
:102DB000548C012030060020801400205006002092
:102DC000340600200800002084140020C84D002094
:102DD000046B0308686A03089C6A0308D06A030846
:102DE00000000020A92C0008B40500207047000056
:102DF000014818F060B900BFB405002010B50446C2
:102E00008C2131F0A3F8204610BD10B504461C21DA
:102E100031F09CF8204610BD10B50446042131F075
:102E200095F8204610BD00002DE9F041344C354D99
:102E3000354B2246354F284635492B6031F081F815
:102E4000344E3846FFF78AFA22463349384631F085
:102E500078F8DFF80481304627F01EF922462F4922
:102E6000304631F06EF840461FF0C2FC22462C4935
:102E7000404631F066F822462A492B4831F061F885
:102E80002A4800234FF480722949C560038680F8E0
:102E90005830436680F870304367C0E91223254AF2
:102EA000C0E91A23244A8267244A10604FF4F07262
:102EB0000A8023490A804FF488722249C0E90176CA
:102EC000C0E90433C0E90633C0E90833C0E90A3376
:102ED000C0E90E33C0E91033C0E91433C0E9173339
:102EE0000A80194980F834300A80184A184913704A
:102EF0002246184B0360BDE8F04131F022B800BF14
:102F0000000000207C14002010620308DC06002072
:102F1000451B000850060020AD200008C92B000802
:102F2000CB2B0008CD2B000808000020B4050020A2
:102F3000E48B01200100000100000101F08B012061
:102F4000EA8B0120E68B0120EC8B0120E88B01202D
:102F50009D1D00089C630308340600200020704774
:102F600081807047C18070470181704741817047FF
:102F70007047704770477047704710B4C488036843
:102F8000121B84885B6D091B12B25DF8044B09B2F9
:102F900018474FF6FF7383814FF0FF3303621368C6
:102FA000C3611060704700207047B1F9043083801E
:102FB00001207047704780F82610704790F826006F
:102FC0007047002210B5B1F90840B1F90A1002802B
:102FD00042808480C18010BD0022028042808280B5
:102FE000C28070470177704780ED080A704780F80B
:102FF0002410704780F825107047012070479830E2
:1030000070478C307047843070470000034B90222B
:1030100083F85A2383F85823704700BF00E100E08B
:10302000094A0A49D3680A48C3F30A03013B9BB221
:103030000B801169C1F30A01013901801364536BDC
:1030400043F001035363704700680140524F002072
:10305000504F0020014BD3F8AC007047006801408E
:10306000024B0122C3F8AC105A627047006801405D
:10307000124A70B55369DB031ED50023C2F88430B1
:10308000BFF34F8FD2F8803043F6E074C3F3C9002A
:10309000C3F34E335B0103EA0406014646EA817539
:1030A0000139C2F87452F9D2203B13F1200FF2D14A
:1030B000BFF34F8FBFF36F8F70BD00BF00ED00E017
:1030C0007047704770473823002201FB0333C25416
:1030D00090F838300BB9036C83647047704780F800
:1030E0004C10704710B50446582130F02FFF204691
:1030F00010BD10B504462C2130F028FF204610BD2D
:1031000010B50446BC2130F021FF204610BD000060
:1031100038B5044617F0BBFF23685D6E1EF0F8F962
:1031200001462046A8472368084A2046D3F888501D
:103130000023A2F57F31A847054B064A5A60064A8C
:103140001A649A644FF4FF225A6438BD00F807C02D
:10315000145000206C50002000F40BC017F07EBF0C
:1031600017F088BF17F044BF18F0B3B890F82520C7
:1031700012B103685B6918477047000008B531B1A8
:10318000044B40F29711044A044831F025FE90F8B0
:10319000390008BD106B0308246B0308B16C0308E9
:1031A00010B531B1064B40F29111064A064831F094
:1031B00013FE406811460368BDE810401B6B1847BA
:1031C000106B0308F36C0308B16C030808B529B150
:1031D000034B7A21034A044831F0FEFD006908BD23
:1031E000106B0308A46E0308B16C030808B529B17D
:1031F000054B8321054A064831F0EEFD41618160AF
:10320000C0E9063208BD00BF106B03085C700308FC
:10321000B16C030810B5044629B1274BA421274AF5
:10322000274831F0D9FD052A34D8DFE802F0032918
:103230002F34393E406803681B69984750B34FF0FC
:10324000FF31606D07F0F0F90023012294F83E1081
:1032500084F83B3084F83920A360636101B12262B5
:1032600084F83E306362E36A2BB90123206D84F851
:103270003A3007F0C9FA606DBDE8104007F004BAB3
:10328000002380F8393084F83E3003E003620023E5
:103290008360436110BD0362002383604361F2E7F2
:1032A000002380F839300123EDE7003B18BF0123EC
:1032B00080F83D30EEE700BF106B03081B72030877
:1032C000B16C030890F825201AB190F8242002B1BF
:1032D0001860704770B50446164629B1314BE72196
:1032E000314A324831F078FD90F8393033B1304B03
:1032F0001B6893F86B20436913444361E36A002B16
:103300004DD0E169D4E905325343A2684A43934260
:1033100020D2236A002B42D04FF0FF31606D07F0BE
:1033200083F9236A0BB10023E362E36AFBB9012549
:10333000606D07F0A9F994F839300BB9236A3BB1F5
:10334000E36A2BB90123206D84F83A3007F05CFA68
:10335000284670BD94F84C000028DDD09B1AB3FBC2
:10336000F1F2994298BF02F1FF326262D4E7002283
:10337000A36294F83C503046E262E2682261A2689F
:103380000132A260336333685B699847002DCED168
:1033900094F83D30002BCBD184F83950C8E7012593
:1033A000C9E700BF106B0308F2730308B16C030890
:1033B000F08B0120034B4FF080629A604FF08072D7
:1033C0009A60704700E100E0084B4FF08062C3F85C
:1033D0008820BFF34F8FBFF36F8F4FF08072C3F819
:1033E0008820BFF34F8FBFF36F8F704700E100E07D
:1033F00038B5034690F8380038BB01229860D86091
:103400009A634FF4807258619A874FF4F072986112
:10341000D861186258629862D8621863586383F85A
:103420003E00CA864FF4887281F834000A87086328
:103430009A6C186102F5FF24D3E9101529448C42D7
:103440000AD9084B5821084A03E0084B40F2F5110D
:10345000074A084831F0C0FC1A6302F57F329C64C9
:103460005A6338BD507703089077030896750308B0
:10347000C6750308B16C0308002370B58380054648
:10348000114B124E0360336893F858200AB1D86C80
:1034900000B998680368DB6A98473368B0FA80F42B
:1034A000D86C640930B10368DB6A9847002808BF0C
:1034B00044F001042CB9064B2C21064A064831F091
:1034C0008BFC284670BD00BF387A0308F08B0120C2
:1034D0003679030894790308CD79030870B5254E31
:1034E0003568BFF35B8F15F0010541D1304630F0F0
:1034F0002FFD00283CD0204C204B04F134002561E6
:10350000E584A562A585C4E90035C4E902551FF02C
:10351000CEFB04F158001AF041FD194B2046A3657B
:10352000184B40F8843BFFF7A7FF174B174A20467C
:10353000C4F8843024331649C4F88C306423C4F8AA
:103540009050C4F89C50C4F8A850C4E92835002312
:10355000C4F8AC30C4F8B030C4F8B430C4F8B830F3
:103560000C4BC4F8983030F0ECFC304630F0FCFCEA
:10357000014870BD544F0020584F002000D0030870
:10358000587A0308D07A0308B4CF0308000000205B
:10359000C330000894CF030810B5144C236823B33C
:1035A000134B144A1B6C11888B4213D1124B198890
:1035B00005F0FCFB226892F86A30013382F86A3029
:1035C000FEF71EFD206818F0AFFA0020BDE810409D
:1035D000FEF716BB05F0EAFB206803681B6A9847F4
:1035E0000020BDE81040FEF73BBB10BDF08B012072
:1035F00000680140524F0020504F00202DE9F74352
:1036000004464FF4707894F83A304FF0FF31002BB5
:1036100031D0606D07F008F8276BA36ABB4200D178
:10362000676B266A656856B32B68314628465B6A25
:1036300098470023236284F83B30606D07F024F83C
:103640002B684FF4F0723946CDF8008028465E6949
:103650004FF48873B0474FF0FF310646606D06F0B7
:10366000E3FF94F83B30E3B1002384F83B30606D16
:1036700007F00AF8C7E7206D07F08AF8C3E7636A26
:10368000002BDAD02B682846D3E909939847616A62
:1036900001442846C847A368626A66621344A3606F
:1036A000CBE7E7625EB12B6828469B6A98470138F2
:1036B0000023E06084F83C6084F83A30D7E70120CA
:1036C000F6E70000014808B5FFF798FF1450002006
:1036D00070B50368044604220D465E6A0023B047B5
:1036E0004FF0FF31606D06F09FFF382303FB05426A
:1036F000D16A09B10021D16203FB0545012385F898
:103700003B30002385F83930606DBDE8704006F02D
:10371000BBBF38B500EB810304460D46114658681F
:103720000368DB68984729462046FFF7D1FF38BD7C
:1037300070B50D461146044600EB850250680268DC
:1037400096681A46B04729462046FFF7C1FF70BD6C
:1037500070B51D4C00251D4E1D492046FEF736FF55
:1037600032461C49204630F0ECFB1B4C1B4B012021
:103770002A46294623604FF48073A564A38784F802
:103780004C0084F83E50C4E91055C4E91455C4E90E
:103790000155C4E90355C4E90555C4E90755C4E911
:1037A0000955C4E90B55C4E90D5506F099FF20658C
:1037B000284606F0F7FE3246606520460849BDE817
:1037C000704030F0BEBB00BF6C50002000000020F5
:1037D000B4500020D7240008145000201C7B03089C
:1037E000C130000808B5042918D8DFE801F0030744
:1037F0000B0F130002F03AFA006808BD02F036FA27
:103800004068FAE702F032FA8068F6E702F02EFA32
:10381000C068F2E702F02AFA0069EEE70020ECE760
:1038200000487047687B03080520704713B50024E3
:1038300051B1036801AA01948DF803409C680DF111
:103840000303A04702B010BD0846FBE7C0897047DC
:10385000008A7047C088704780887047807A00F07F
:103860007F007047807AC0097047002070470000D1
:103870009FED010A704700BF00000000704710B5BF
:103880000446082130F062FB204610BD70477047A7
:1038900000F598730868496803C37047704770471C
:1038A0004160704770470000064BC0F84801C0F8FF
:1038B0004C310023C0F8503100F5A273C0F84031FC
:1038C000704700BF693900080123037270477047D1
:1038D000704710B4C2680346416854109B6801EBFE
:1038E0006200D20748BF0A595DF8044B48BFD3585D
:1038F00018470346406830B19A681AB9D86800F092
:10390000010070470120704710B504460C2130F0CB
:103910001DFB204610BD10B50446102130F016FBEB
:10392000204610BD10B504464FF4AE7130F00EFBCA
:10393000204610BD10B51DF0EBFD0368BDE810403A
:10394000DB6B184710B50446D0F8400158B1036846
:10395000DB68984738B1D4F8400103689B68984702
:103960000023C4F8403110BD2DE9F14FD0E9556A6C
:103970000746B06803681B6A984743F60F139842DE
:1039800005D8444BA321444A444831F025FA7068D5
:1039900003681B6A98470F2803D8414BA4213E4A6D
:1039A000F2E7F06803681B6A98470B2803D83D4B81
:1039B000A521394AE8E7DFF8F4901DF0A9FD0430AD
:1039C0001DF0E4FDD9F8000010B10368DB689847EA
:1039D000D9F8000010B103681B689847DFF8D08061
:1039E000D8F8000010B103685B699847D7F83C012C
:1039F00010B103685B689847D8F8000010B10368FD
:103A00001B689847D7F83C0110B103689B6898473A
:103A1000F06800214FF0000B03685B6A9847224B67
:103A20000446C0F804B080F808B059460360B06896
:103A300003685B6A9847054603F054FA7068594674
:103A400003685B6A98470646294603F057F9331D19
:103A5000C7F83C612846C9F80040C8F80050CAF8C9
:103A60000030C6F808A02B68EE63DB68984733681F
:103A700030461B689847214628461FF049FE2368B8
:103A800020461B699847236820465B6901B0BDE862
:103A9000F04F1847DC7B03086A7C03083C7D030871
:103AA000837D0308267E0308407F0308388C0120AD
:103AB000348C0120044B1B6893F858200AB1D86C51
:103AC00000B99868704700BFF08B0120F8B5174621
:103AD00004460E461DF02CFE124B00251C602946A4
:103AE000114B2360114BC4E95135114B1868C4E9DF
:103AF0004F55C4E95355C4E9557603689B68984708
:103B0000284602F067F8FFF7D5FF28F018F9FFF70D
:103B1000D1FF28F08FF9FFF7CDFF28F097F9204665
:103B2000F8BD00BF448C0120EC7E0308D47E03085E
:103B3000F08B0120064BC0F84801C0F84C3100233F
:103B4000C0F8503100F5A273C0F84031704700BF93
:103B500069390008406A7047806A704770478B88EF
:103B6000C069DB0A0A6850F823001044704710B59A
:103B70000446BAB1107B68B1537BD27A1B0203F4BE
:103B8000E0631A43236A03EB82031A888A4202D154
:103B900093F9020010BD05D80138043380B2002823
:103BA000F3D1F7E70020F5E710B504462C2130F0FB
:103BB000CDF9204610BD000030B58BB00446BDF8ED
:103BC00060500895BDF85C5007959DF850500695DB
:103BD0009DF84C5005959DF8485004959DF844502B
:103BE00003959DF8405002959DF83C500195BDF815
:103BF000385000951FF018F9064B20462360159B9E
:103C0000E361169B2362199B63621A9BA3620BB04C
:103C100030BD00BF647F030870477047704770472E
:103C2000704730B585B00368044601816D46014692
:103C3000D3F884303C342846984795E8070084E858
:103C4000070005B030BD30B585B00368044641813A
:103C50006D460146D3F884303C342846984795E8B1
:103C6000070084E8070005B030BD002202804280D2
:103C70008280C280704780F83610704770B5036844
:103C8000044615461B6B98472368294620465B6E01
:103C9000BDE87040184700207047806C704770473F
:103CA000704770477047704770477047704770475C
:103CB000704770477047704770477047704770474C
:103CC000704700F55073994270B504460D4602D115
:103CD0000368DB6D984704F658739D4203D123684F
:103CE00020461B6E984704F5D85310339D4203D1EC
:103CF000236820465B6E984704F526739D4203D1E6
:103D0000236820469B6E984704F514739D4203D1A7
:103D100023682046DB6E984704F502739D4205D167
:103D2000236820461B6FBDE87040184770BD2DE921
:103D3000F0411E4600F5896304460D469942174638
:103D40000AD10B68284611469B68984723680146AC
:103D50003246DB6A2046984704F224639D420AD12A
:103D60002B68394628469B689847236801463246A7
:103D70001B6B2046984704F500639D420AD12B68CF
:103D8000394628469B6898472368014632465B6B54
:103D90002046984704F6DC139D420AD12B68394629
:103DA00028469B6898472368014632469B6B20460D
:103DB000984704F6B8339D420AD12B683946284605
:103DC0009B689847236801463246DB6B204698473C
:103DD00004F694539D420AD12B68394628469B68C5
:103DE00098472368014632461B6C2046984704F5E5
:103DF00083539D420AD12B68394628469B689847D1
:103E00002368014632465B6C2046984704F591537F
:103E10001C339D420AD12B68394628469B68984737
:103E20002368014632469B6C2046984704F5A05310
:103E300018339D420AD12B68394628469B6898471B
:103E4000236801463246DB6C2046984704F5AF53A1
:103E500014339D420AD12B68394628469B689847FF
:103E60002368014632461B6D2046984704F5BE5331
:103E700010339D420AD12B68394628469B689847E3
:103E80002368014632465B6D2046984704F5CD53C2
:103E90000C339D420CD12B68394628469B689847C5
:103EA00023680146324620469B6DBDE8F041184725
:103EB000BDE8F08102207047022070470220704761
:103EC000022070470220704702207047022070478E
:103ED000022070470220704702207047022070477E
:103EE000022070477047704710B5074B044640F8F2
:103EF000903BD4F890301B6898476368201D1B687E
:103F00009847204610BD00BFD88A030810B5074B5C
:103F1000044640F8903BD4F890301B68984763689B
:103F2000201D1B689847204610BD00BFC08A0308AB
:103F300010B5074B044640F8903BD4F890301B680E
:103F400098476368201D1B689847204610BD00BF36
:103F5000A88A030810B5074B044640F8903BD4F8F4
:103F600090301B6898476368201D1B68984720465F
:103F700010BD00BF908A030810B5074B044640F8F7
:103F8000903BD4F890301B6898476368201D1B68ED
:103F90009847204610BD00BF788A030810B5074B2C
:103FA000044640F8903BD4F890301B68984763680B
:103FB000201D1B689847204610BD00BF608A03087B
:103FC00010B5074B044640F8903BD4F890301B687E
:103FD00098476368201D1B689847204610BD00BFA6
:103FE000488A030810B5074B044640F8903BD4F8C4
:103FF00090301B6898476368201D1B6898472046CF
:1040000010BD00BF308A030810B5074B044640F8C6
:10401000903BD4F890301B6898476368201D1B685C
:104020009847204610BD00BF188A030810B5074BFB
:10403000044640F8903BD4F890301B68984763687A
:10404000201D1B689847204610BD00BF008A03084A
:1040500010B5074B044640F8903BD4F890301B68ED
:1040600098476368201D1B689847204610BD00BF15
:10407000E889030810B5074B044640F8903BD4F894
:1040800090301B6898476368201D1B68984720463E
:1040900010BD00BFD0890308704730B4C268034622
:1040A000446855109B6804EB6200D20748BF625910
:1040B00030BC48BFD35818470346406830B19A68AF
:1040C0001AB9D86800F00100704701207047F0B4B9
:1040D000C568044646686F10A46806EB6500ED07E6
:1040E00044BFF5592C59A446F0BC604703464068CC
:1040F00030B19A681AB9D86800F001007047012001
:10410000704710B50446FFF7B5FF4FF48E71204697
:104110002FF01CFF204610BD10B50446FFF798FF96
:104120004FF48E7120462FF011FF204610BD10B5C0
:104130000446FFF77BFF4FF48E7120462FF006FFF9
:10414000204610BD10B50446FFF75EFF4FF48E7198
:1041500020462FF0FBFE204610BD10B50446FFF7A9
:1041600041FF4FF48E7120462FF0F0FE204610BD27
:1041700010B50446FFF724FF4FF48E7120462FF050
:10418000E5FE204610BD10B50446FFF707FF4FF4CB
:104190008E7120462FF0DAFE204610BD10B5044681
:1041A000FFF7EAFE4FF48E7120462FF0CFFE204637
:1041B00010BD10B50446FFF7CDFE4FF48E712046BA
:1041C0002FF0C4FE204610BD10B50446FFF7B0FE28
:1041D0004FF48E7120462FF0B9FE204610BD10B569
:1041E0000446FFF793FE4FF48E7120462FF0AEFE8B
:1041F000204610BD10B50446FFF776FE4FF48E71D1
:1042000020462FF0A3FE204610BD10B504464C21D9
:104210002FF09CFE204610BD10B5044610212FF053
:1042200095FE204610BD10B5044610212FF08EFEDD
:10423000204610BD70B5044600F56D7015F080FF86
:1042400004F24C4004F5835602F056FFD4F8D834FB
:1042500004F59B6004F58055D3F88830984704F541
:10426000B26015F06DFF04F5C56002F077FFD4F879
:10427000B43604F2B460D3F88830984704F26C7016
:1042800015F05EFF04F6040002F09AFFD4F89038AF
:1042900004F50960D3F88830984704F6481015F003
:1042A0004FFF04F51E6002F0BDFFD4F86C3A04F62F
:1042B0006C20D3F88830984704F6243015F040FF7E
:1042C00004F6BC3002F0E0FFD4F8483C04F6484065
:1042D000D3F88830984704F5506015F031FF04F6A4
:1042E000985003F003F8D4F8243E04F62460D3F881
:1042F0008830984704F6CC7015F022FF301D03F08B
:1043000027F8D5F8F03006F1900004F59156D3F86F
:104310008830984704F58D50083015F011FF04F5EA
:10432000925003F047F8D5F8CC3206F1AC0004F512
:10433000A056D3F88830984704F59C50043015F007
:10434000FFFE06F11C0003F067F8D5F8A83406F16B
:10435000A80004F5AF56D3F88830984704F5AB5061
:1043600015F0EEFE06F1180003F088F8D5F8843653
:1043700006F1A400D3F88830984704F5B9501C30F2
:1043800015F0DEFE04F5BE50143003F0A9F8D5F8A0
:10439000603804F5C350D3F88830984704F5C85006
:1043A00004F5CD54183015F0CBFE04F1100003F0E5
:1043B000C9F8D5F83C3A04F19C00D3F88830BDE840
:1043C000704018471E4B10B5044603601BF0A8FB55
:1043D00004F5CD500C30FFF787FD04F5BE501030CA
:1043E000FFF794FD04F5AF501430FFF7A1FD04F57D
:1043F000A0501830FFF7AEFD04F591501C30FFF7C8
:10440000BBFD04F58350FFF7C9FD04F69450FFF798
:10441000D7FD04F6B830FFF7E5FD04F6DC10FFF732
:10442000F3FD04F50060FFF701FE04F22460FFF7DE
:104430000FFE04F58960FFF71DFE204610BD00BF8A
:10444000208B030810B50446FFF7BCFF43F610119C
:1044500020462FF07BFD204610BD08B5FEF786FEF6
:1044600008BD000008B58BB2012B05D9054B5421BE
:10447000054A064830F0B0FC8C2301FB03000430F1
:1044800008BD00BFC47F0308DF7F03087A800308EC
:1044900008B58BB2012B05D9054B5421054A0648B6
:1044A00030F09AFC8C2301FB0300043008BD00BFF0
:1044B000C47F0308D98003087A80030808B58BB24B
:1044C000012B05D9054B5421054A064830F084FCE0
:1044D0008C2301FB0300043008BD00BFC47F030828
:1044E000748103087A80030808B58BB2012B05D9C3
:1044F000054B5421054A064830F06EFC8C2301FB25
:104500000300043008BD00BFC47F03080F82030806
:104510007A80030808B58BB2012B05D9054B5421CD
:10452000054A064830F058FC8C2301FB0300043098
:1045300008BD00BFC47F0308AA8203087A8003086D
:1045400008B58BB2012B05D9054B5421054A064805
:1045500030F042FC8C2301FB0300043008BD00BF97
:10456000C47F0308458303087A80030808B58BB22B
:10457000012B05D9054B5421054A064830F02CFC87
:104580008C2301FB0300043008BD00BFC47F030877
:10459000E08303087A80030808B58BB2012B05D9A4
:1045A000054B5421054A064830F016FC8C2301FBCC
:1045B0000300043008BD00BFC47F03087B840308E8
:1045C0007A80030808B58BB2012B05D9054B54211D
:1045D000054A064830F000FC8C2301FB0300043040
:1045E00008BD00BFC47F0308168503087A8003084E
:1045F00008B58BB2012B05D9054B5421054A064855
:1046000030F0EAFB8C2301FB0300043008BD00BF3F
:10461000C47F0308B18503087A80030808B58BB20C
:10462000012B05D9054B5421054A064830F0D4FB2F
:104630008C2301FB0300043008BD00BFC47F0308C6
:104640004C8603087A80030808B58BB2012B05D984
:10465000054B5421054A064830F0BEFB8C2301FB74
:104660000300043008BD00BFC47F0308E7860308C9
:104670007A80030870B5036804468DB25E6B114BF7
:104680001B682BB9104B6C21104A114830F0A4FB69
:104690001049828D0988914203D80F4B6D210B4A36
:1046A000F3E713F812200D4B1B6853F82200036840
:1046B0001B6B9847291A3346204609B2BDE8704063
:1046C000184700BF488C012082870308C48703086D
:1046D000FF8703084C8C012046880308508C01207A
:1046E00000224FF0FF318260C0E90021704770B5B1
:1046F0000368044615461B6B9847236829462046E5
:104700005B6BBDE87040184770B504461D46BDF9A7
:104710001060FFF7ECFF2368294620469B6B984703
:10472000236831462046DB6BBDE870401847000027
:104730004FF4807100228184054982620160C0E9E2
:104740000122C0E90322C0E90522C0E9072270471F
:10475000D4CE03080022C0E90122C0E90322C0E947
:104760000522C0E907224FF480728284014A026068
:10477000704700BFD888030810B5044626220021E0
:1047800030F0D8FD2046FFF7E5FF044B20462360BC
:10479000FF2384F826300023A36210BD84D20308CF
:1047A000F8B5194B0646018F1B888B422AD9174B47
:1047B0001B682BB9164B6C21164A174830F00CFBBE
:1047C00013F81120154B1B6853F82250144B18682E
:1047D00001F03CFA2B68074628469B6B98472B68EC
:1047E000044639469B6C2846984714FB00F42B6816
:1047F0003946A4B228465B6A984723181BB2A6F82C
:104800004630F8BD0023FAE74C8C0120488C01208B
:1048100082870308C4870308FF870308508C0120A0
:10482000548C012010B504462622002130F082FD70
:104830002046FFF78FFF0A4B4FF47F02204623608C
:10484000084BA3624FF6FF73A3850023C4E90C3223
:104850004FF0FF322387E363C4E9102310BD00BF8C
:10486000F4D10308D47B030810B5044615F0FCFD11
:10487000014B2046236010BDF0CD03082DE9F04F19
:104880000446B9B000261EF097FD2746E04B04F120
:104890006C054FF6FF78E66304F5507A47F8403B25
:1048A0003846FFF769FF262231462846ADF8D88002
:1048B00030F040FD2846DFF89093FFF74BFFD54BD3
:1048C00036A92846E36604F5805BBDF8D83084F845
:1048D000948009F12408A4F892301AF029F904F11F
:1048E00098031846159318F051FE04F1E00318469A
:1048F0002493FEF7C1FD04F1F403C4F8E0901846D8
:10490000C4F8E880C4F8EC601F9318F03FFE04F58B
:104910009E7318462593FEF7AFFD04F5A873C4F8FF
:104920003C911846C4F84481C4F84861209318F0BB
:104930002DFE04F5CC7318462693FEF79DFD04F575
:10494000D673C4F898911846C4F8A081C4F8A4613D
:10495000219318F01BFE04F5FA7318462793FEF70F
:104960008BFD04F50273C4F8F4911846C4F8FC8179
:10497000C4F8006204F6D44816931AF01BFA04F542
:104980001473DFF8C892184617931AF013FA04F557
:104990002673184618931AF00DFA04F53873184662
:1049A0000D93FFF7C5FE04F5437318462293FFF7F6
:1049B000E3FE5046C4F80C93C4F83863A4F83C6393
:1049C0001AF0F8F904F5627318460793FFF74CFFE5
:1049D000914B04F24C40C4F8483404F589632993A0
:1049E00002F06EFB04F59B6002F06AFB04F2645374
:1049F00018460893FFF738FF884B04F5C560C4F8E4
:104A0000243604F224632A9302F08CFB04F2B4608F
:104A100002F088FB04F5E86318460993FFF724FFCA
:104A20007F4B04F60400C4F8003804F500632B93B0
:104A300002F0AAFB04F5096002F0A6FB04F61C13C1
:104A400018460A93FFF710FF764B04F51E60C4F872
:104A5000DC3904F6DC132C9302F0C8FB04F66C205E
:104A600002F0C4FB04F6F82318460B93FFF7FCFE94
:104A70006D4B04F6BC30C4F8B83B04F6B8332D9344
:104A800002F0E6FB04F6484002F0E2FB4046FFF786
:104A9000EBFE664B04F69850C4F8943D04F694532C
:104AA0002E9302F007FC04F6246002F003FC04F5E8
:104AB0006B6318461993FFF7B5FE04F6F8631846C2
:104AC0000E93FFF735FE04F6247318462393FFF781
:104AD00053FE04F65873C4F8249F1846C4F8506F68
:104AE000A4F8546F1A931AF065F904F57A63DFF8A5
:104AF000609118460C93FFF7B7FE4D4BCBF8603032
:104B000004F58353181D289302F006FC04F5875022
:104B1000103002F001FC04F58B531C33184602934D
:104B2000FFF7A2FE434B04F59250CBF83C3202F063
:104B300025FC04F596500C3002F020FC04F59A5345
:104B4000183318460393FFF78FFE3B4BCBF818340E
:104B500004F5A0531833181D1B9302F041FC04F513
:104B6000A550083002F03CFC04F5A9531433184654
:104B70000493FFF779FE314BCBF8F43504F5AF53CE
:104B80001433181D1C9302F05DFC04F5B45004307E
:104B900002F058FC04F5B853103318460593FFF79C
:104BA00063FE274BCBF8D03704F5BE531033181DE6
:104BB0001D9302F079FC04F5C35002F075FC04F576
:104BC000C7530C3318460693FFF74EFE1D4BCBF828
:104BD000AC3904F5CD530C33181D1E9302F096FC2E
:104BE00004F5D1501C3002F091FC04F5D653083383
:104BF00018460F93FFF716FE04F5D85310331846E6
:104C000011931AF0D7F804F5DA531833184621E057
:104C1000208B030854D30308D0890308E8890308CC
:104C2000008A0308188A0308308A0308488A0308A0
:104C3000608A0308788A0308908A0308A88A030810
:104C4000C08A0308D88A0308B4CF0308ECD203084B
:104C5000408903081093FFF7E5FD04F5DD5318467E
:104C60001293FFF7DFFD04F5DF5308331846139363
:104C7000FFF7D8FD04F5E153CBF8E89B1433CBF8EC
:104C8000306C18461493FFF7CDFD04F54053D74A16
:104C900004F5E650CBF8349C4FF4E151CBF87C6C32
:104CA0001030C3F8F0284FF43459D14AC3F8F4480F
:104CB000C3F8F828CF4AC3F8FC68C3F80029CE4AE5
:104CC000C3F80449C3F80829C3F80C691AF01EFF99
:104CD0004FF4887332463846314600934FF4F073F0
:104CE000FFF712FD4FF07F4339464DF60417A366D8
:104CF000231D18462F9315F0E1FE32462846314613
:104D0000FFF7F5FC284636A9ADF8D86019F010FF7A
:104D10002946201D4FF4A06515F0D0FE5023C52272
:104D20004FF4C67115980093FFF7EEFC4FF43B73F8
:104D3000249A201DC4F8CC30B04B1599C4F8D490F7
:104D4000C4F8EC30A4F8F070C4F8C020C4F8D860FF
:104D5000C4F8D060C4E9315515F0B0FE5022CF211F
:104D60001F9813460092C522FFF7CEFC4FF43B720A
:104D7000A24B201DC4F82821259A1F99C4F8483158
:104D8000A4F84C71C4F81C21C4F83461C4E9485536
:104D9000C4E94B6915F092FE502240F24D11209863
:104DA00013460092C522FFF7AFFC4FF43B72934BC2
:104DB000201DC4F88421269A2099C4F8A431A4F8AF
:104DC000A871C4F87821C4F89061C4E95F55C4E9BA
:104DD000626915F073FE50224FF4877121981346D3
:104DE0000092C522FFF790FC844B4FF43B7221994F
:104DF000C4F80032201D279BC4F8E021C4F8D43148
:104E0000A4F804724FF00407C4F8EC61C4E97655C5
:104E1000C4E9796915F052FE4FF001094FF002051F
:104E2000DB224FF4D1711698FFF761FC36AA35A941
:104E30001698ADF8D490ADF8D85019F0B2FC2123F3
:104E40001698A4F84032FFF7ABFC4FF07F424FF0CA
:104E5000FF331699201DC4E9912304F56453C4F867
:104E60003032159315F02AFEDB2240F263111798B9
:104E7000FFF73DFC36AA35A91798ADF8D490ADF8E8
:104E8000D85019F08EFC22231798A4F88832FFF727
:104E900087FC4FF07F414FF0FF33201DC4E9A3137F
:104EA000159B1799C4F8783215F008FEDB224FF4F1
:104EB00092711898FFF71BFC36AA35A91898ADF81F
:104EC000D490ADF8D85019F06CFC232318984C4DB1
:104ED000A4F8D032FFF764FC4FF07F404FF0FF336F
:104EE0001899C4E9B503159B201DC4F8C03215F00C
:104EF000E5FD50230D221B210D9800934FF4E07324
:104F0000FFF702FC4823324631462298009340F2D4
:104F1000B913FFF7F9FB4FF07F434FF005022299D9
:104F20000D98A4F83C23C4E9CD5315F0C7FD5046B5
:104F30000D220C21FFF7DBFB4FF0030136AA504690
:104F4000ADF8D41035A9ADF8D87019F02AFC252396
:104F500050464D274B25A4F87833FFF721FC294B09
:104F600015982949C4F868030D98C4E9DF31514602
:104F700004F5635A15F0A2FD3F236FF00E024FF4C3
:104F8000BD7107980AF1300A0097FFF7BDFB314663
:104F9000079815F0F0FC4946079815F04BFD1B49A2
:104FA000079815F025FC0A21079815F024FC0A2122
:104FB000079815F023FC0A21079815F097FB314656
:104FC000079815F05BF932465E21079884F8125471
:104FD00015F00CFB52462999079815F043FD32460F
:104FE0000921079815F0F2FA079911E0F08A0308F1
:104FF0002F3D0008088B0308C33C00082323D9FF7A
:10500000BBFAC8FF2ED422FF0000FAFF1D370208AA
:105010000D9815F053FD3F236FF00E0240F23B1147
:1050200008980097FFF770FB3146089815F0A3FC2D
:105030004946089815F0FEFCCE49089815F0D8FBB3
:105040000A21089815F0D7FB0A21089815F0D6FB1D
:105050000A21089815F04AFB3146089815F00EF918
:1050600032465E21089884F8EE5515F0BFFA524694
:105070002A99089815F0F6FC32460921089815F08F
:10508000A5FA08990D9815F019FD3F236FF00E024F
:10509000FC2109980097FFF737FB3146099815F076
:1050A0006AFC4946099815F0C5FCB249099815F003
:1050B0009FFB0A21099815F09EFB0A21099815F01B
:1050C0009DFB0A21099815F011FB3146099815F04E
:1050D000D5F832465E21099884F8CA5715F086FA49
:1050E00052462B99099815F0BDFC324609210998C2
:1050F00015F06CFA09990D9815F0E0FC3F236FF05C
:105100000E02BD210A980097FFF7FEFA31460A9871
:1051100015F031FC49460A9815F08CFC95490A981F
:1051200015F066FB0A210A9815F065FB0A210A981A
:1051300015F064FB0A210A9815F0D8FA31460A984E
:1051400015F09CF832465E210A9884F8A65915F0AD
:105150004DFA52462C990A9815F084FC32460921E2
:105160000A9815F033FA0A990D9815F0A7FC3F2319
:105170006FF00E027E210B980097FFF7C5FA3146BB
:105180000B9815F0F8FB49460B9815F053FC79493C
:105190000B9815F02DFB0A210B9815F02CFB0A211A
:1051A0000B9815F02BFB0A210B9815F09FFA31464E
:1051B0000B9815F063F832465E210B9884F8825BF9
:1051C00015F014FA52462D990B9815F04BFC324607
:1051D00009210B9815F0FAF90B990D9815F06EFC52
:1051E0003F236FF00E02404619460097FFF78CFAF6
:1051F0004046314615F0BFFB4946404615F01AFCC3
:1052000040465C4915F0F4FA40460A2115F0F3FADD
:1052100040460A2115F0F2FA40460A2115F066FAD6
:105220004046314615F02AF8404632465E2184F861
:105230005E5D15F0DBF9524640462E9915F012FCE2
:1052400032464046092115F0C1F941460D980DF14D
:10525000C00815F033FC4A4638211998FFF747FA81
:105260004FF07F4C40461999C4F8E0CEA4F8E46EA4
:1052700018F092FF04F6EC630DF1D80C98E80700E3
:1052800083E807003C4B6146199836931323ADF829
:10529000DC3019F029FA19990D9815F00FFC0D99C9
:1052A000201D15F00BFC4FF0500C4FF4E0735D2205
:1052B0001B210E98CDF800C0FFF726FA4FF0480CDE
:1052C000324640F2B91331462398CDF800C0FFF7BB
:1052D0001BFA4FF07F4C294B4FF00500C4F850CF1C
:1052E000C4F84C3F2399A4F8540F0E9815F0E6FB30
:1052F0000D220C211A98FFF7FAF94FF0030036AA95
:10530000ADF8D4004FF00400ADF8D80035A8014640
:105310001A9819F046FA14231A98A4F8903FFFF748
:105320003FFA174A1749C4F8942F159A0E98C4F8F3
:10533000981FC4F8802F1A9915F0C0FB3F236FF017
:105340000E024FF4BD710C980097FFF7DDF931465E
:105350000C9815F010FB49460C9815F06BFB0549AD
:105360000C9815F045FA0A210C9815F044FA0A2118
:105370000C9809E01D370208D47B0308BBDBFAFF59
:105380002ED422FF0000FAFF15F038FA0A210C98FB
:1053900015F0ACF931460C9814F070FF32465E21DE
:1053A0000C988BF82A5015F021F9524628990C9840
:1053B00015F058FB324609210C9815F007F90C99A5
:1053C0000E9815F07BFB3F236FF00E0240F23B116D
:1053D00002980097FFF798F93146029815F0CBFA3A
:1053E0004946029815F026FBCA49029815F000FAC2
:1053F0000A21029815F0FFF90A21029815F0FEF92A
:105400000A21029815F072F93146029814F036FF1D
:1054100032465E2102988BF8065215F0E7F804F543
:105420009151524602981C3115F01CFB324609215D
:10543000029815F0CBF802990E9815F03FFB3F2328
:105440006FF00E02FC2103980097FFF75DF93146DB
:10545000039815F090FA4946039815F0EBFAAD4918
:10546000039815F0C5F90A21039815F0C4F90A212B
:10547000039815F0C3F90A21039815F037F931465E
:10548000039814F0FBFE32465E2103988BF8E2533A
:1054900015F0ACF852461B99039815F0E3FA324622
:1054A0000921039815F092F803990E9815F006FB60
:1054B0003F236FF00E02BD2104980097FFF724F9F7
:1054C0003146049815F057FA4946049815F0B2FA97
:1054D0009049049815F08CF90A21049815F08BF97D
:1054E0000A21049815F08AF90A21049815F0FEF8AB
:1054F0003146049814F0C2FE32465E2104988BF8BF
:10550000BE5515F073F852461C99049815F0AAFA86
:1055100032460921049815F059F804990E9815F0AF
:10552000CDFA3F236FF00E027E2105980097FFF71A
:10553000EBF83146059815F01EFA4946059815F026
:1055400079FA7449059815F053F90A21059815F070
:1055500052F90A21059815F051F90A21059815F01C
:10556000C5F83146059814F089FE32465E2105984B
:105570008BF89A5715F03AF852461D99059815F090
:1055800071FA32460921059815F020F805990E9810
:1055900015F094FA3F236FF00E0206981946009713
:1055A000FFF7B2F83146069815F0E5F94946069836
:1055B00015F040FA5749069815F01AF90A2106988D
:1055C00015F019F90A21069815F018F90A2106981C
:1055D00015F08CF83146069814F050FE32465E21E4
:1055E00006988BF87659354615F000F852461E9904
:1055F0004FF0180A069815F035FA32460921069838
:1056000014F0E4FF06990E9815F058FA4A4638212E
:105610000F98FFF76CF84FF07F4240460F99CBF898
:10562000F82AABF8FC6A18F0B7FD0F9A3A4F02F16E
:105630003C0398E8070083E80700122336A90F9877
:10564000ADF8DC30369719F04FF8DDE90E0115F0B2
:1056500035FA0E99201D15F031FADB22E52111985B
:10566000FFF745F84FF0020336AA35A91198ADF8B7
:10567000D49004F5E459ADF8D83019F092F8242309
:105680001198ABF8483BFFF78BF84FF07F43119927
:10569000201DCBF84C3B4FF0FF33CBF8503B159B14
:1056A000CBF8383B15F00AFAAC2240F251111098B1
:1056B000FFF71DF8194B40461099CBF8883BABF823
:1056C0008C6B18F069FD109B98E807003C33369707
:1056D00083E80700112336A91098ADF8DC3019F0E3
:1056E00003F81099201D15F0E9F9AD221B2112983D
:1056F000FEF7FDFF0A4B40461299CBF8D03BABF8C2
:10570000D46B18F049FD129B98E807003C3336979C
:1057100008E000BF1D370208D47B030835F71BFFE4
:105720000CBFF5FFDFF83C8183E80700102336A9A2
:105730001298ADF8DC3018F0D7FF1299201D15F043
:10574000BDF9C423D5220B211398CDF800A0FEF794
:10575000DBFF3B4BABF81C6CCBF8183C4FF0FF3336
:10576000CBF8246CCBF8283CD8F80030CBF82C6C64
:105770002BB9344B6021344A34482FF02DFB344F81
:105780003B88022B03D8334B61212F4AF4E7324E7A
:105790000221306800F05AFA304A03461421484684
:1057A0001FF0CCFA2E4B4FF0030236A91398CBF81A
:1057B000309C04F5E5593693ADF8DC2018F094FFE1
:1057C0001399201D15F07AF9C423F3220B211498A4
:1057D00009F10809CDF800A0FEF796FF4FF0FF335E
:1057E000174ACBF8743CD8F80030CBF8642CABF8EF
:1057F000685CCBF8705CCBF8785C002BB9D03B8848
:10580000002BC0D02946306800F020FA134A034626
:10581000142148461FF092FA114B36A9149836937A
:105820000123CBF87C9CADF8DC3018F05DFF201D27
:10583000149915F043F9204639B0BDE8F08F00BF48
:105840000DE7FFFF8287030884880308FF870308AA
:105850004C8C012046880308548C012038C0030872
:10586000D47B0308488C012030B5184D8FB02C68CC
:10587000BFF35B8F14F0010425D128462EF068FB9E
:1058800008B3134B0122134913480A940594CDE938
:105890000B433F230993114B0893114BCDE906436A
:1058A0000423CDE903321E23062200932423CDE9ED
:1058B0000144FEF781F90B4A0B4907482EF041FBE2
:1058C00028462EF051FB04480FB030BD345800205C
:1058D000948B03085867049038580020FCDC0308B8
:1058E00020DD0308000000205D3B000830B5184DA6
:1058F0008FB02C68BFF35B8F14F0010424D12846CD
:105900002EF026FB00B33F230A2212490993124BC3
:1059100012480893124B0A940793012301940493AD
:10592000CDE905430423CDE902432223CDE90B440D
:1059300000932323FEF740F90A4A0B4907482EF04B
:1059400000FB28462EF010FB04480FB030BD00BF0E
:1059500064580020AC67049000DD030868580020FC
:1059600034DD0308000000205D3B000830B5174D12
:105970008FB02C68BFF35B8F14F0010422D128464E
:105980002EF0E6FAF0B13F23042211490993114B9E
:1059900011480893114B0A940594CDE9064301235D
:1059A000CDE903230A23CDE90B440093CDE901445B
:1059B000FEF702F90A4A0B4907482EF0C2FA2846B8
:1059C0002EF0D2FA04480FB030BD00BF945800202A
:1059D0003868049004DD03089858002038DD030877
:1059E000000000205D3B000830B5184D8FB02C68DA
:1059F000BFF35B8F14F0010424D128462EF0A8FADF
:105A000000B33F230B2212490993124B124808930B
:105A1000124B0A940793012301940493CDE90533B3
:105A20000423CDE902431423CDE90B44009318234A
:105A3000FEF7C2F80A4A0B4907482EF082FA2846B8
:105A40002EF092FA04480FB030BD00BFC4580020B9
:105A50007068049008DD0308C85800203CDD030886
:105A6000000000205D3B000830B5184D8FB02C6859
:105A7000BFF35B8F14F0010424D128462EF068FA9E
:105A800000B33F23012212490993124B1248089395
:105A9000124B0A940594CDE906430423CDE9033261
:105AA00028230B2200932923CDE90B44CDE901449F
:105AB000FEF782F80A4A0B4907482EF042FA2846B8
:105AC0002EF052FA04480FB030BD00BFF458002049
:105AD0000C6904901CDD0308F858002040DD030821
